{
  "contractName": "MonkeyCore",
  "abi": [
    {
      "constant": true,
      "inputs": [],
      "name": "owneraddress",
      "outputs": [
        {
          "name": "",
          "type": "address"
        }
      ],
      "payable": false,
      "stateMutability": "view",
      "type": "function"
    },
    {
      "inputs": [],
      "payable": false,
      "stateMutability": "nonpayable",
      "type": "constructor"
    },
    {
      "anonymous": false,
      "inputs": [
        {
          "indexed": false,
          "name": "",
          "type": "address"
        },
        {
          "indexed": false,
          "name": "",
          "type": "uint256"
        },
        {
          "indexed": false,
          "name": "",
          "type": "bool"
        }
      ],
      "name": "BuyMonkeySuccess",
      "type": "event"
    },
    {
      "anonymous": false,
      "inputs": [
        {
          "indexed": false,
          "name": "",
          "type": "bool"
        },
        {
          "indexed": false,
          "name": "",
          "type": "bool"
        },
        {
          "indexed": false,
          "name": "",
          "type": "uint256"
        },
        {
          "indexed": false,
          "name": "",
          "type": "uint256"
        },
        {
          "indexed": false,
          "name": "",
          "type": "uint256"
        },
        {
          "indexed": false,
          "name": "",
          "type": "uint256"
        }
      ],
      "name": "BuyMonkeyFail",
      "type": "event"
    },
    {
      "anonymous": false,
      "inputs": [
        {
          "indexed": false,
          "name": "",
          "type": "uint256"
        },
        {
          "indexed": false,
          "name": "",
          "type": "uint256"
        },
        {
          "indexed": false,
          "name": "",
          "type": "uint256"
        },
        {
          "indexed": false,
          "name": "",
          "type": "uint256"
        },
        {
          "indexed": false,
          "name": "",
          "type": "uint256"
        },
        {
          "indexed": false,
          "name": "",
          "type": "uint256"
        }
      ],
      "name": "AddLevelResult",
      "type": "event"
    },
    {
      "anonymous": false,
      "inputs": [
        {
          "indexed": false,
          "name": "",
          "type": "uint256"
        },
        {
          "indexed": false,
          "name": "",
          "type": "uint256"
        }
      ],
      "name": "UpgrageFail",
      "type": "event"
    },
    {
      "anonymous": false,
      "inputs": [
        {
          "indexed": false,
          "name": "",
          "type": "bool"
        },
        {
          "indexed": false,
          "name": "",
          "type": "bool"
        },
        {
          "indexed": false,
          "name": "",
          "type": "bool"
        },
        {
          "indexed": false,
          "name": "",
          "type": "uint256"
        },
        {
          "indexed": false,
          "name": "",
          "type": "uint256"
        }
      ],
      "name": "CheckUpgradeFail",
      "type": "event"
    },
    {
      "anonymous": false,
      "inputs": [
        {
          "indexed": false,
          "name": "",
          "type": "uint256"
        },
        {
          "indexed": false,
          "name": "",
          "type": "uint256"
        },
        {
          "indexed": false,
          "name": "",
          "type": "bool"
        },
        {
          "indexed": false,
          "name": "",
          "type": "uint256"
        },
        {
          "indexed": false,
          "name": "",
          "type": "uint256"
        },
        {
          "indexed": false,
          "name": "",
          "type": "uint256"
        },
        {
          "indexed": false,
          "name": "",
          "type": "uint256"
        },
        {
          "indexed": false,
          "name": "",
          "type": "bool"
        }
      ],
      "name": "NewLevel",
      "type": "event"
    },
    {
      "anonymous": false,
      "inputs": [
        {
          "indexed": false,
          "name": "",
          "type": "uint256"
        }
      ],
      "name": "NowLevel",
      "type": "event"
    },
    {
      "constant": false,
      "inputs": [],
      "name": "test",
      "outputs": [
        {
          "name": "",
          "type": "bool"
        }
      ],
      "payable": false,
      "stateMutability": "nonpayable",
      "type": "function"
    },
    {
      "constant": true,
      "inputs": [],
      "name": "GetPlayerLength",
      "outputs": [
        {
          "name": "",
          "type": "uint256"
        }
      ],
      "payable": false,
      "stateMutability": "view",
      "type": "function"
    },
    {
      "constant": true,
      "inputs": [],
      "name": "GetLevelLength",
      "outputs": [
        {
          "name": "",
          "type": "uint256"
        }
      ],
      "payable": false,
      "stateMutability": "view",
      "type": "function"
    },
    {
      "constant": false,
      "inputs": [],
      "name": "FreeMonkey",
      "outputs": [],
      "payable": false,
      "stateMutability": "nonpayable",
      "type": "function"
    },
    {
      "constant": false,
      "inputs": [
        {
          "name": "_key",
          "type": "uint256"
        }
      ],
      "name": "BuyMonkey",
      "outputs": [],
      "payable": true,
      "stateMutability": "payable",
      "type": "function"
    },
    {
      "constant": true,
      "inputs": [],
      "name": "GetOwnMinValue",
      "outputs": [
        {
          "name": "",
          "type": "uint256"
        }
      ],
      "payable": false,
      "stateMutability": "view",
      "type": "function"
    },
    {
      "constant": true,
      "inputs": [
        {
          "name": "_key",
          "type": "uint256"
        }
      ],
      "name": "GetBuyMinValue",
      "outputs": [
        {
          "name": "",
          "type": "uint256"
        }
      ],
      "payable": false,
      "stateMutability": "view",
      "type": "function"
    },
    {
      "constant": false,
      "inputs": [
        {
          "name": "_key",
          "type": "uint256"
        }
      ],
      "name": "UpgradeLevel",
      "outputs": [],
      "payable": false,
      "stateMutability": "nonpayable",
      "type": "function"
    },
    {
      "constant": true,
      "inputs": [
        {
          "name": "_key",
          "type": "uint256"
        }
      ],
      "name": "GetPlayerInfo",
      "outputs": [
        {
          "name": "",
          "type": "uint256"
        },
        {
          "name": "",
          "type": "address"
        },
        {
          "name": "",
          "type": "uint256"
        },
        {
          "name": "",
          "type": "uint256"
        },
        {
          "name": "",
          "type": "uint256"
        },
        {
          "name": "",
          "type": "bool"
        }
      ],
      "payable": false,
      "stateMutability": "view",
      "type": "function"
    },
    {
      "constant": true,
      "inputs": [
        {
          "name": "_key",
          "type": "uint256"
        }
      ],
      "name": "GetLevelInfo",
      "outputs": [
        {
          "name": "",
          "type": "uint256"
        },
        {
          "name": "",
          "type": "uint256"
        },
        {
          "name": "",
          "type": "bool"
        },
        {
          "name": "",
          "type": "uint256"
        },
        {
          "name": "",
          "type": "uint256"
        },
        {
          "name": "",
          "type": "uint256"
        },
        {
          "name": "",
          "type": "uint256"
        },
        {
          "name": "",
          "type": "bool"
        }
      ],
      "payable": false,
      "stateMutability": "view",
      "type": "function"
    },
    {
      "constant": true,
      "inputs": [
        {
          "name": "_key",
          "type": "uint256"
        }
      ],
      "name": "GetMonkeyInfo",
      "outputs": [
        {
          "name": "",
          "type": "uint256"
        },
        {
          "name": "",
          "type": "uint256"
        },
        {
          "name": "",
          "type": "bool"
        },
        {
          "name": "",
          "type": "uint256"
        },
        {
          "name": "",
          "type": "address"
        },
        {
          "name": "",
          "type": "uint256"
        }
      ],
      "payable": false,
      "stateMutability": "view",
      "type": "function"
    },
    {
      "constant": true,
      "inputs": [],
      "name": "GetOwnerInfo",
      "outputs": [
        {
          "name": "",
          "type": "uint256"
        },
        {
          "name": "",
          "type": "uint256"
        }
      ],
      "payable": false,
      "stateMutability": "view",
      "type": "function"
    },
    {
      "constant": true,
      "inputs": [],
      "name": "GetFreeMonkeyCount",
      "outputs": [
        {
          "name": "",
          "type": "uint256"
        }
      ],
      "payable": false,
      "stateMutability": "view",
      "type": "function"
    },
    {
      "constant": false,
      "inputs": [],
      "name": "FreePower",
      "outputs": [],
      "payable": false,
      "stateMutability": "nonpayable",
      "type": "function"
    },
    {
      "constant": false,
      "inputs": [
        {
          "name": "_power",
          "type": "uint256"
        }
      ],
      "name": "BuyPower",
      "outputs": [],
      "payable": true,
      "stateMutability": "payable",
      "type": "function"
    },
    {
      "constant": false,
      "inputs": [
        {
          "name": "_fight",
          "type": "uint256"
        }
      ],
      "name": "Training",
      "outputs": [],
      "payable": true,
      "stateMutability": "payable",
      "type": "function"
    },
    {
      "constant": true,
      "inputs": [
        {
          "name": "_fight",
          "type": "uint256"
        }
      ],
      "name": "GetTrainingValue",
      "outputs": [
        {
          "name": "",
          "type": "uint256"
        }
      ],
      "payable": false,
      "stateMutability": "view",
      "type": "function"
    },
    {
      "constant": false,
      "inputs": [
        {
          "name": "_key",
          "type": "uint256"
        },
        {
          "name": "_difficulty",
          "type": "uint256"
        },
        {
          "name": "_special",
          "type": "bool"
        },
        {
          "name": "_specialcount",
          "type": "uint256"
        },
        {
          "name": "_allcount",
          "type": "uint256"
        },
        {
          "name": "_addrange",
          "type": "uint256"
        },
        {
          "name": "_addmin",
          "type": "uint256"
        },
        {
          "name": "_state",
          "type": "bool"
        }
      ],
      "name": "ChangeLevel",
      "outputs": [],
      "payable": false,
      "stateMutability": "nonpayable",
      "type": "function"
    },
    {
      "constant": false,
      "inputs": [
        {
          "name": "_count",
          "type": "uint256"
        }
      ],
      "name": "CreateLevel",
      "outputs": [],
      "payable": false,
      "stateMutability": "nonpayable",
      "type": "function"
    }
  ],
  "bytecode": "0x6080604052600160075560016008556001600955600a8055611388600b55655af3107a4000600c5566038d7ea4c68000600d55670de0b6b3a7640000600e5562015180600f5534801561005157600080fd5b50336000806101000a81548173ffffffffffffffffffffffffffffffffffffffff021916908373ffffffffffffffffffffffffffffffffffffffff1602179055506100a96100ae640100000000026401000000009004565b610316565b6080604051908101604052806000815260200160008152602001600115158152602001600081525060016000808152602001908152602001600020600082015181600001556020820151816001015560408201518160020160006101000a81548160ff0219169083151502179055506060820151816003015590505060c060405190810160405280600081526020016000809054906101000a900473ffffffffffffffffffffffffffffffffffffffff1673ffffffffffffffffffffffffffffffffffffffff16815260200160008152602001600081526020016000815260200160001515815250600260008081526020019081526020016000206000820151816000015560208201518160010160006101000a81548173ffffffffffffffffffffffffffffffffffffffff021916908373ffffffffffffffffffffffffffffffffffffffff16021790555060408201518160020155606082015181600301556080820151816004015560a08201518160050160006101000a81548160ff021916908315150217905550905050610100604051908101604052806000815260200160008152602001600015158152602001600081526020016000815260200160008152602001600081526020016000151581525060036000808152602001908152602001600020600082015181600001556020820151816001015560408201518160020160006101000a81548160ff021916908315150217905550606082015181600301556080820151816004015560a0820151816005015560c0820151816006015560e08201518160070160006101000a81548160ff021916908315150217905550905050565b612969806103256000396000f300608060405260043610610112576000357c0100000000000000000000000000000000000000000000000000000000900463ffffffff16806304e8d55e146101175780631ab801da146101ab5780631d13ec60146101d85780632adf1b5d146102035780633b7fd516146102355780635eddbe34146102555780636644a7bc1461028057806383e31b45146102c1578063a6973956146102e1578063a72eb1311461035b578063aaa484251461039c578063c343fb0a146103f3578063c668a7b01461040a578063d4166f5214610421578063d949131f14610441578063e93ec0a6146104b8578063ed6a509b146104e5578063f8a8fd6d14610510578063f8cddcc11461053f578063fd8219fb1461056a575b600080fd5b34801561012357600080fd5b50610142600480360381019080803590602001909291905050506105fe565b60405180878152602001868152602001851515151581526020018481526020018373ffffffffffffffffffffffffffffffffffffffff1673ffffffffffffffffffffffffffffffffffffffff168152602001828152602001965050505050505060405180910390f35b3480156101b757600080fd5b506101d6600480360381019080803590602001909291905050506106a1565b005b3480156101e457600080fd5b506101ed61090b565b6040518082815260200191505060405180910390f35b34801561020f57600080fd5b50610218610915565b604051808381526020018281526020019250505060405180910390f35b610253600480360381019080803590602001909291905050506109a0565b005b34801561026157600080fd5b5061026a610bc7565b6040518082815260200191505060405180910390f35b34801561028c57600080fd5b506102ab60048036038101908080359060200190929190505050610bd1565b6040518082815260200191505060405180910390f35b6102df60048036038101908080359060200190929190505050610bdf565b005b3480156102ed57600080fd5b5061030c60048036038101908080359060200190929190505050610c29565b6040518089815260200188815260200187151515158152602001868152602001858152602001848152602001838152602001821515151581526020019850505050505050505060405180910390f35b34801561036757600080fd5b5061038660048036038101908080359060200190929190505050610caa565b6040518082815260200191505060405180910390f35b3480156103a857600080fd5b506103b1610d96565b604051808273ffffffffffffffffffffffffffffffffffffffff1673ffffffffffffffffffffffffffffffffffffffff16815260200191505060405180910390f35b3480156103ff57600080fd5b50610408610dbb565b005b34801561041657600080fd5b5061041f610e5a565b005b61043f60048036038101908080359060200190929190505050610ea0565b005b34801561044d57600080fd5b506104b6600480360381019080803590602001909291908035906020019092919080351515906020019092919080359060200190929190803590602001909291908035906020019092919080359060200190929190803515159060200190929190505050610f35565b005b3480156104c457600080fd5b506104e360048036038101908080359060200190929190505050611131565b005b3480156104f157600080fd5b506104fa6111f2565b6040518082815260200191505060405180910390f35b34801561051c57600080fd5b50610525611203565b604051808215151515815260200191505060405180910390f35b34801561054b57600080fd5b5061055461126b565b6040518082815260200191505060405180910390f35b34801561057657600080fd5b50610595600480360381019080803590602001909291905050506112eb565b604051808781526020018673ffffffffffffffffffffffffffffffffffffffff1673ffffffffffffffffffffffffffffffffffffffff16815260200185815260200184815260200183815260200182151515158152602001965050505050505060405180910390f35b6000806000806000806000600160008981526020019081526020016000209050806000015481600101548260020160009054906101000a900460ff168360030154600460008d815260200190815260200160002060009054906101000a900473ffffffffffffffffffffffffffffffffffffffff1660056006600c548860010154020281151561068a57fe5b049650965096509650965096505091939550919395565b60008060006106af8461136c565b15156106ba57600080fd5b60036000858152602001908152602001600020925060026000600660003373ffffffffffffffffffffffffffffffffffffffff1673ffffffffffffffffffffffffffffffffffffffff168152602001908152602001600020548152602001908152602001600020915060016000600560003373ffffffffffffffffffffffffffffffffffffffff1673ffffffffffffffffffffffffffffffffffffffff1681526020019081526020016000205481526020019081526020016000209050826001015481600101541015156107965761079184611554565b610905565b8160030160008154809291906001900391905055508160026000600660003373ffffffffffffffffffffffffffffffffffffffff1673ffffffffffffffffffffffffffffffffffffffff168152602001908152602001600020548152602001908152602001600020600082015481600001556001820160009054906101000a900473ffffffffffffffffffffffffffffffffffffffff168160010160006101000a81548173ffffffffffffffffffffffffffffffffffffffff021916908373ffffffffffffffffffffffffffffffffffffffff1602179055506002820154816002015560038201548160030155600482015481600401556005820160009054906101000a900460ff168160050160006101000a81548160ff0219169083151502179055509050507f7025c4ba400c41621befebcabaf17642d252a20cdf85a969d0ec163d36361aed81600101548460010154604051808381526020018281526020019250505060405180910390a15b50505050565b6000600954905090565b600080600660003373ffffffffffffffffffffffffffffffffffffffff1673ffffffffffffffffffffffffffffffffffffffff16815260200190815260200160002054600560003373ffffffffffffffffffffffffffffffffffffffff1673ffffffffffffffffffffffffffffffffffffffff16815260200190815260200160002054915091509091565b6000806109ab611af6565b15156109b657600080fd5b60026000600660003373ffffffffffffffffffffffffffffffffffffffff1673ffffffffffffffffffffffffffffffffffffffff16815260200190815260200160002054815260200190815260200160002091508160050160009054906101000a900460ff161515610a2757600080fd5b60016000600560003373ffffffffffffffffffffffffffffffffffffffff1673ffffffffffffffffffffffffffffffffffffffff16815260200190815260200160002054815260200190815260200160002090508060020160009054906101000a900460ff161515610a9857600080fd5b82600c540234111515610aaa57600080fd5b6000809054906101000a900473ffffffffffffffffffffffffffffffffffffffff1673ffffffffffffffffffffffffffffffffffffffff166108fc349081150290604051600060405180830381858888f19350505050158015610b11573d6000803e3d6000fd5b508281600101540181600101819055508060016000600560003373ffffffffffffffffffffffffffffffffffffffff1673ffffffffffffffffffffffffffffffffffffffff16815260200190815260200160002054815260200190815260200160002060008201548160000155600182015481600101556002820160009054906101000a900460ff168160020160006101000a81548160ff02191690831515021790555060038201548160030155905050505050565b6000600854905090565b600081600c54029050919050565b610be7611af6565b1515610bf657610bf5611b50565b5b600081111515610c0557600080fd5b606581101515610c1457600080fd5b610c1d81611caf565b610c2681611d33565b50565b6000806000806000806000806000600360008b81526020019081526020016000209050806000015481600101548260020160009054906101000a900460ff1683600301548460040154856005015486600601548760070160009054906101000a900460ff169850985098509850985098509850985050919395975091939597565b6000806000806000600160008781526020019081526020016000209350610ccf611af6565b1580610ce05750610cde611e74565b155b15610d0e57600c5481600101540260056006600c5487600101540202811515610d0557fe5b04039250610d8a565b600560003373ffffffffffffffffffffffffffffffffffffffff1673ffffffffffffffffffffffffffffffffffffffff168152602001908152602001600020549150600160008381526020019081526020016000209050600c5481600101540260056006600c5487600101540202811515610d8557fe5b040392505b82945050505050919050565b6000809054906101000a900473ffffffffffffffffffffffffffffffffffffffff1681565b600080610dc6611af6565b1515610dd557610dd4611b50565b5b600660003373ffffffffffffffffffffffffffffffffffffffff1673ffffffffffffffffffffffffffffffffffffffff168152602001908152602001600020549150600260008381526020019081526020016000209050600f548160040154420310151515610e4357600080fd5b428160040181905550610e566005611d33565b5050565b610e62611e74565b151515610e6e57600080fd5b600b5460075411151515610e8157600080fd5b610e89611b50565b610e94600754611ee3565b610e9e600161207e565b565b610ea8611af6565b1515610eb757610eb6611b50565b5b610ebf611e74565b1515610f15576000600560003373ffffffffffffffffffffffffffffffffffffffff1673ffffffffffffffffffffffffffffffffffffffff16815260200190815260200160002081905550610f14600161207e565b5b610f1e816121cc565b1515610f2957600080fd5b610f32816123b1565b50565b60008060009054906101000a900473ffffffffffffffffffffffffffffffffffffffff1673ffffffffffffffffffffffffffffffffffffffff163373ffffffffffffffffffffffffffffffffffffffff16141515610f9257600080fd5b600360008a81526020019081526020016000209050878160010181905550868160020160006101000a81548160ff021916908315150217905550858160030181905550838160050181905550828160060181905550818160070160006101000a81548160ff02191690831515021790555080600360008b815260200190815260200160002060008201548160000155600182015481600101556002820160009054906101000a900460ff168160020160006101000a81548160ff021916908315150217905550600382015481600301556004820154816004015560058201548160050155600682015481600601556007820160009054906101000a900460ff168160070160006101000a81548160ff0219169083151502179055509050507ed20a50b6f67c67abfc5b53228ff2213171de85853c905fa704af64f700909889898989898989896040518089815260200188815260200187151515158152602001868152602001858152602001848152602001838152602001821515151581526020019850505050505050505060405180910390a1505050505050505050565b60008060009054906101000a900473ffffffffffffffffffffffffffffffffffffffff1673ffffffffffffffffffffffffffffffffffffffff163373ffffffffffffffffffffffffffffffffffffffff1614151561118e57600080fd5b600090505b818110156111b0576111a36126fd565b8080600101915050611193565b7fd8a7fdd4b68645072bbfef847813bd0c664d9d990cac3a2475098c3a38d3eaa36111d961090b565b6040518082815260200191505060405180910390a15050565b60006001600754600b540301905090565b60008060009054906101000a900473ffffffffffffffffffffffffffffffffffffffff1673ffffffffffffffffffffffffffffffffffffffff163373ffffffffffffffffffffffffffffffffffffffff1614156112635760019050611268565b600090505b90565b600080600080600560003373ffffffffffffffffffffffffffffffffffffffff1673ffffffffffffffffffffffffffffffffffffffff16815260200190815260200160002054925060016000848152602001908152602001600020915060056006600c54846001015402028115156112df57fe5b04905080935050505090565b600080600080600080600060026000898152602001908152602001600020905080600001548160010160009054906101000a900473ffffffffffffffffffffffffffffffffffffffff168260020154836003015484600401548560050160009054906101000a900460ff169650965096509650965096505091939550919395565b60008060008060036000868152602001908152602001600020925060026000600660003373ffffffffffffffffffffffffffffffffffffffff1673ffffffffffffffffffffffffffffffffffffffff168152602001908152602001600020548152602001908152602001600020915060016000600560003373ffffffffffffffffffffffffffffffffffffffff1673ffffffffffffffffffffffffffffffffffffffff16815260200190815260200160002054815260200190815260200160002090508260070160009054906101000a900460ff16801561145b57508160050160009054906101000a900460ff165b801561147557508060020160009054906101000a900460ff165b8015611485575060008260030154115b8015611498575084600182600301540110155b156114a6576001935061154c565b7f1a27620b5e42152c3c841f609e7fe9edea353a8d724226e4d72987fda47034978360070160009054906101000a900460ff168360050160009054906101000a900460ff168360020160009054906101000a900460ff1685600301546001866003015401604051808615151515815260200185151515158152602001841515151581526020018381526020018281526020019550505050505060405180910390a1600093505b505050919050565b60008060008060036000868152602001908152602001600020935060026000600660003373ffffffffffffffffffffffffffffffffffffffff1673ffffffffffffffffffffffffffffffffffffffff168152602001908152602001600020548152602001908152602001600020925060016000600560003373ffffffffffffffffffffffffffffffffffffffff1673ffffffffffffffffffffffffffffffffffffffff1681526020019081526020016000205481526020019081526020016000209150826002015485111561162d578483600201819055505b8482600301541015156116bc5783600601544233604051808381526020018273ffffffffffffffffffffffffffffffffffffffff1673ffffffffffffffffffffffffffffffffffffffff166c01000000000000000000000000028152601401925050506040518091039020600190048115156116a557fe5b069050808260010154018260010181905550611807565b8360020160009054906101000a900460ff1680156116e1575083600401548460030154115b1561176557836006015460020284600501546002024233604051808381526020018273ffffffffffffffffffffffffffffffffffffffff1673ffffffffffffffffffffffffffffffffffffffff166c010000000000000000000000000281526014019250505060405180910390206001900481151561175c57fe5b060190506117da565b836006015484600501544233604051808381526020018273ffffffffffffffffffffffffffffffffffffffff1673ffffffffffffffffffffffffffffffffffffffff166c01000000000000000000000000028152601401925050506040518091039020600190048115156117d557fe5b060190505b80826001015401826001018190555084826003018190555083600401600081548092919060010191905055505b8260030160008154809291906001900391905055508160016000600560003373ffffffffffffffffffffffffffffffffffffffff1673ffffffffffffffffffffffffffffffffffffffff16815260200190815260200160002054815260200190815260200160002060008201548160000155600182015481600101556002820160009054906101000a900460ff168160020160006101000a81548160ff021916908315150217905550600382015481600301559050508260026000600660003373ffffffffffffffffffffffffffffffffffffffff1673ffffffffffffffffffffffffffffffffffffffff168152602001908152602001600020548152602001908152602001600020600082015481600001556001820160009054906101000a900473ffffffffffffffffffffffffffffffffffffffff168160010160006101000a81548173ffffffffffffffffffffffffffffffffffffffff021916908373ffffffffffffffffffffffffffffffffffffffff1602179055506002820154816002015560038201548160030155600482015481600401556005820160009054906101000a900460ff168160050160006101000a81548160ff021916908315150217905550905050836003600087815260200190815260200160002060008201548160000155600182015481600101556002820160009054906101000a900460ff168160020160006101000a81548160ff021916908315150217905550600382015481600301556004820154816004015560058201548160050155600682015481600601556007820160009054906101000a900460ff168160070160006101000a81548160ff0219169083151502179055509050507fa3aaa3db72d4eae5df657e7e10c5fbae0c207566c15d85d4e4d80c8304a0813c818360010154846003015486600201548860040154886003015460405180878152602001868152602001858152602001848152602001838152602001828152602001965050505050505060405180910390a15050505050565b600080600660003373ffffffffffffffffffffffffffffffffffffffff1673ffffffffffffffffffffffffffffffffffffffff168152602001908152602001600020541415611b485760009050611b4d565b600190505b90565b6000611b5a6128a4565b611b62610bc7565b915060c0604051908101604052808381526020013373ffffffffffffffffffffffffffffffffffffffff168152602001600081526020016005815260200142815260200160001515815250905080600260008481526020019081526020016000206000820151816000015560208201518160010160006101000a81548173ffffffffffffffffffffffffffffffffffffffff021916908373ffffffffffffffffffffffffffffffffffffffff16021790555060408201518160020155606082015181600301556080820151816004015560a08201518160050160006101000a81548160ff02191690831515021790555090505081600660003373ffffffffffffffffffffffffffffffffffffffff1673ffffffffffffffffffffffffffffffffffffffff168152602001908152602001600020819055506008600081548092919060010191905055505050565b6000600d5482029050803410151515611cc757600080fd5b6000809054906101000a900473ffffffffffffffffffffffffffffffffffffffff1673ffffffffffffffffffffffffffffffffffffffff166108fc349081150290604051600060405180830381858888f19350505050158015611d2e573d6000803e3d6000fd5b505050565b600080600660003373ffffffffffffffffffffffffffffffffffffffff1673ffffffffffffffffffffffffffffffffffffffff1681526020019081526020016000205491506002600083815260200190815260200160002090508281600301540181600301819055508060026000848152602001908152602001600020600082015481600001556001820160009054906101000a900473ffffffffffffffffffffffffffffffffffffffff168160010160006101000a81548173ffffffffffffffffffffffffffffffffffffffff021916908373ffffffffffffffffffffffffffffffffffffffff1602179055506002820154816002015560038201548160030155600482015481600401556005820160009054906101000a900460ff168160050160006101000a81548160ff021916908315150217905550905050505050565b60008060026000600660003373ffffffffffffffffffffffffffffffffffffffff1673ffffffffffffffffffffffffffffffffffffffff16815260200190815260200160002054815260200190815260200160002090508060050160009054906101000a900460ff1691505090565b600080601e4233604051808381526020018273ffffffffffffffffffffffffffffffffffffffff1673ffffffffffffffffffffffffffffffffffffffff166c0100000000000000000000000002815260140192505050604051809103902060019004811515611f4e57fe5b069150816064019050608060405190810160405280848152602001828152602001600115158152602001600081525060016000858152602001908152602001600020600082015181600001556020820151816001015560408201518160020160006101000a81548160ff02191690831515021790555060608201518160030155905050336004600085815260200190815260200160002060006101000a81548173ffffffffffffffffffffffffffffffffffffffff021916908373ffffffffffffffffffffffffffffffffffffffff16021790555082600560003373ffffffffffffffffffffffffffffffffffffffff1673ffffffffffffffffffffffffffffffffffffffff16815260200190815260200160002081905550600760008154809291906001019190505550505050565b600080600660003373ffffffffffffffffffffffffffffffffffffffff1673ffffffffffffffffffffffffffffffffffffffff168152602001908152602001600020549150600260008381526020019081526020016000209050828160050160006101000a81548160ff0219169083151502179055508060026000848152602001908152602001600020600082015481600001556001820160009054906101000a900473ffffffffffffffffffffffffffffffffffffffff168160010160006101000a81548173ffffffffffffffffffffffffffffffffffffffff021916908373ffffffffffffffffffffffffffffffffffffffff1602179055506002820154816002015560038201548160030155600482015481600401556005820160009054906101000a900460ff168160050160006101000a81548160ff021916908315150217905550905050505050565b6000806000806000806000600160008981526020019081526020016000209550600560003373ffffffffffffffffffffffffffffffffffffffff1673ffffffffffffffffffffffffffffffffffffffff1681526020019081526020016000205494506001600086815260200190815260200160002093506004600089815260200190815260200160002060009054906101000a900473ffffffffffffffffffffffffffffffffffffffff16925061228288610caa565b9150600a3481151561229057fe5b0490508560020160009054906101000a900460ff1680156122bf57508360020160009054906101000a900460ff165b80156122d357508360010154866001015410155b156123a1578134101515156122e757600080fd5b8273ffffffffffffffffffffffffffffffffffffffff166108fc8234039081150290604051600060405180830381858888f1935050505015801561232f573d6000803e3d6000fd5b506000809054906101000a900473ffffffffffffffffffffffffffffffffffffffff1673ffffffffffffffffffffffffffffffffffffffff166108fc829081150290604051600060405180830381858888f19350505050158015612397573d6000803e3d6000fd5b50600196506123a6565b600096505b505050505050919050565b6000806000806001600086815260200190815260200160002093506004600086815260200190815260200160002060009054906101000a900473ffffffffffffffffffffffffffffffffffffffff169250600560003373ffffffffffffffffffffffffffffffffffffffff1673ffffffffffffffffffffffffffffffffffffffff1681526020019081526020016000205491506001600083815260200190815260200160002090503373ffffffffffffffffffffffffffffffffffffffff168373ffffffffffffffffffffffffffffffffffffffff161415151561249457600080fd5b600c54348115156124a157fe5b048160010154018460010181905550836001600087815260200190815260200160002060008201548160000155600182015481600101556002820160009054906101000a900460ff168160020160006101000a81548160ff0219169083151502179055506003820154816003015590505084600560003373ffffffffffffffffffffffffffffffffffffffff1673ffffffffffffffffffffffffffffffffffffffff16815260200190815260200160002081905550336004600087815260200190815260200160002060006101000a81548173ffffffffffffffffffffffffffffffffffffffff021916908373ffffffffffffffffffffffffffffffffffffffff16021790555081600560008573ffffffffffffffffffffffffffffffffffffffff1673ffffffffffffffffffffffffffffffffffffffff16815260200190815260200160002081905550826004600084815260200190815260200160002060006101000a81548173ffffffffffffffffffffffffffffffffffffffff021916908373ffffffffffffffffffffffffffffffffffffffff1602179055507f02f0731219d19ac933e01266ca1b75d6b136b1a499775397be2f449b8d2015683386600560003373ffffffffffffffffffffffffffffffffffffffff1673ffffffffffffffffffffffffffffffffffffffff168152602001908152602001600020548814604051808473ffffffffffffffffffffffffffffffffffffffff1673ffffffffffffffffffffffffffffffffffffffff16815260200183815260200182151515158152602001935050505060405180910390a15050505050565b6000806000806000806000806127116128f3565b6000809054906101000a900473ffffffffffffffffffffffffffffffffffffffff1673ffffffffffffffffffffffffffffffffffffffff163373ffffffffffffffffffffffffffffffffffffffff1614151561276c57600080fd5b61277461090b565b9850601460018a03026064019750600160058a81151561279057fe5b061496506000955086156127a357600a95505b60009450600f9350600a925060019150610100604051908101604052808a81526020018981526020018815158152602001878152602001868152602001858152602001848152602001831515815250905080600360008b8152602001908152602001600020600082015181600001556020820151816001015560408201518160020160006101000a81548160ff021916908315150217905550606082015181600301556080820151816004015560a0820151816005015560c0820151816006015560e08201518160070160006101000a81548160ff021916908315150217905550905050600960008154809291906001019190505550505050505050505050565b60c06040519081016040528060008152602001600073ffffffffffffffffffffffffffffffffffffffff1681526020016000815260200160008152602001600081526020016000151581525090565b6101006040519081016040528060008152602001600081526020016000151581526020016000815260200160008152602001600081526020016000815260200160001515815250905600a165627a7a72305820007b92ce76439426306e12729dd424ae576a95fe11c3caff14a7f3bf6f123e890029",
  "source": "pragma solidity ^0.4.11;\n\ncontract MonkeyCore {\n    address public owneraddress;\n\n    function MonkeyCore() public{\n        owneraddress = msg.sender;\n        Init();\n    }\n\n    modifier onlyOwner() {\n        require(msg.sender == owneraddress);\n        _;\n    }\n\n    function test () public returns(bool) {\n        if (msg.sender == owneraddress){\n            return true;\n        }\n        return false;\n    }\n    \n    struct Monkey {\n        uint256 key;\n        uint256 fight;\n        bool state;\n        uint256 level;\n    }\n\n    struct Player {\n        uint256 key;\n        address owner;\n        uint256 level;\n        uint256 power;\n        uint256 logintime;\n        bool state;  /////////\n    }\n\n    struct Level {\n        uint256 key;\n        uint256 difficulty;\n        bool special;\n        uint256 specialcount;\n        uint256 allcount;\n        uint256 addrange;\n        uint256 addmin;\n        bool state;\n    }\n\n    mapping (uint256 => Monkey) monkeys;\n    mapping (uint256 => Player) players;\n    mapping (uint256 => Level) levels;\n    mapping (uint256 => address) monkey2owner;\n    mapping (address => uint256) owner2monkey;\n    mapping (address => uint256) owner2player;\n\n    uint256 freemonkey = 1;\n    uint256 playercount = 1;\n    uint256 levelcount = 1;\n    uint256 initpower = 10;\n    uint256 allmonkey = 5000;\n    uint256 conversionfight = 100000000000000;   ////0.0001eth\n    uint256 conversionpower = 1000000000000000;  ////0.001eth\n    uint256 wei2eth = 1000000000000000000;\n    uint256 oneday = 24 * 60 * 60;\n\n    event BuyMonkeySuccess (address, uint256, bool);\n    event BuyMonkeyFail (bool, bool, uint256, uint256, uint256, uint256);\n    event AddLevelResult (uint256, uint256, uint256, uint256, uint256, uint256);\n    event UpgrageFail (uint256, uint256);\n    event CheckUpgradeFail (bool, bool, bool, uint256, uint256);\n    event NewLevel (uint256, uint256, bool, uint256, uint256, uint256, uint256, bool);\n    event NowLevel (uint256);\n\n    function Init () private {\n        monkeys[0] = Monkey({key:0,fight:0,state:true,level:0});\n        players[0] = Player({key:0,owner:owneraddress,level:0,power:0,logintime:0,state:false});\n        levels[0] = Level({key:0, difficulty:0, special:false, specialcount:0, allcount:0, addrange:0, addmin:0, state:false});\n    }\n\n    function CheckHaveMonkey () private view returns (bool) {\n        Player player = players[owner2player[msg.sender]];\n        return player.state;\n    }\n\n    function CheckHavePlayer () private view returns (bool) {\n        if (owner2player[msg.sender] == 0){\n            return false;\n        } else {\n            return true;\n        }\n    }\n\n    function GetPlayerLength () public view returns (uint256) {\n        return playercount;\n    }\n\n    function GetLevelLength () public view returns (uint256) {\n        return levelcount;\n    }\n\n    function CreatePlayer () private {\n        uint256 _key = GetPlayerLength();\n        Player memory player = Player({key:_key, owner:msg.sender, level:0, power:5, logintime:now, state:false});\n        players[_key] = player;\n        owner2player[msg.sender] = _key;\n        playercount ++;\n    }\n\n    function CreateMonkey (uint256 _key) private {\n        uint256 random = uint(keccak256(now, msg.sender)) % 30;\n        uint256 _fight = 100 + random;\n        monkeys[_key] = Monkey({key:_key,fight:_fight,state:true,level:0});\n        monkey2owner[_key] = msg.sender;\n        owner2monkey[msg.sender] = _key;\n        freemonkey ++;\n    }\n\n    function ChangePlayerState (bool _state) private {\n        uint256 _key = owner2player[msg.sender];\n        Player player = players[_key];\n        player.state = _state;\n        players[_key] = player;\n    }\n\n    function ChangeMonkeyState (bool _state) private {\n        uint256 _key = owner2monkey[msg.sender];\n        Monkey monkey = monkeys[_key];\n        monkey.state = _state;\n        monkeys[_key] = monkey;\n    }\n\n    function FreeMonkey () public {\n        require(!CheckHaveMonkey());\n        require(freemonkey <= allmonkey);\n        CreatePlayer();\n        CreateMonkey(freemonkey);\n        ChangePlayerState(true);\n    }\n\n    function BuyMonkey (uint256 _key) public payable{\n        ///////////////monkey has owner\n        if (!CheckHavePlayer()) {\n            CreatePlayer();\n        }\n        if (!CheckHaveMonkey()) { \n            owner2monkey[msg.sender] = 0;\n            ChangePlayerState(true);\n        }\n        require (CheckBuyMonkey(_key));\n        ChangeBuyMonkeyState(_key);\n    }\n\n    function GetOwnMinValue () public view returns (uint256) {\n        uint256 _key = owner2monkey[msg.sender];\n        Monkey _monkey = monkeys[_key];\n        uint256 minvalue = _monkey.fight * conversionfight * 6 / 5 ;\n        return minvalue;\n    }\n\n    function GetBuyMinValue (uint256 _key) public view returns (uint256) {\n        Monkey _monkey = monkeys[_key];\n        uint256 minvalue;\n        if (!CheckHavePlayer() || !CheckHaveMonkey()) {\n            minvalue = _monkey.fight * conversionfight * 6 / 5 - _changemonkey.fight * conversionfight;\n        } else {\n            uint256 _changekey = owner2monkey[msg.sender];\n            Monkey _changemonkey = monkeys[_changekey];\n            minvalue = _monkey.fight * conversionfight * 6 / 5 - _changemonkey.fight * conversionfight;\n        }\n        return minvalue;\n    }\n\n    function ChangeBuyMonkeyState (uint256 _key) private {\n        Monkey _monkey = monkeys[_key];\n        address _owner = monkey2owner[_key];\n        uint256 _changekey = owner2monkey[msg.sender];\n        Monkey _changemonkey = monkeys[_changekey];\n\n        require (_owner != msg.sender);\n\n        _monkey.fight = (_changemonkey.fight + msg.value / conversionfight);\n        monkeys[_key] = _monkey;\n        owner2monkey[msg.sender] = _key;\n        monkey2owner[_key] = msg.sender;\n\n        owner2monkey[_owner] = _changekey;\n        monkey2owner[_changekey] = _owner;\n\n        emit BuyMonkeySuccess(msg.sender , _key, _key == owner2monkey[msg.sender]);\n    }\n\n    function CheckBuyMonkey (uint _key) private view returns(bool) {\n        Monkey _monkey = monkeys[_key];\n        uint256 _changekey = owner2monkey[msg.sender];\n        Monkey _changemonkey = monkeys[_changekey];\n        address _owner = monkey2owner[_key];\n        \n        uint256 minvalue = GetBuyMinValue (_key);\n        uint256 fee = msg.value / 10 ;\n        if (_monkey.state && _changemonkey.state && _monkey.fight >= _changemonkey.fight) {\n            require (msg.value >= minvalue);\n            _owner.transfer(msg.value - fee);\n            owneraddress.transfer(fee);\n            return true;\n        } else {\n            return false;\n            emit BuyMonkeyFail(_monkey.state , _changemonkey.state, _monkey.fight, _changemonkey.fight, msg.value, minvalue);\n        }\n    }\n\n    function UpgradeLevel (uint256 _key) public {\n        require (CheckUpgrade(_key));\n        Level level = levels[_key];\n        Player player = players[owner2player[msg.sender]];\n        Monkey monkey = monkeys[owner2monkey[msg.sender]];\n        if (monkey.fight >= level.difficulty) {\n            AddLevel(_key);\n        } else {\n            player.power --;\n            players[owner2player[msg.sender]] = player;\n            emit UpgrageFail (monkey.fight, level.difficulty);\n        }\n    }\n\n    function CheckUpgrade (uint256 _key) private view returns (bool) {\n        Level level = levels[_key];\n        Player player = players[owner2player[msg.sender]];\n        Monkey monkey = monkeys[owner2monkey[msg.sender]];\n        if(level.state && player.state && monkey.state && player.power > 0 && monkey.level + 1 >= _key){\n            return true;\n        } else {\n            emit CheckUpgradeFail (level.state, player.state, monkey.state, player.power, monkey.level + 1);\n            return false;\n        }\n    }\n\n    function AddLevel (uint _key) private {\n        Level level = levels[_key];\n        Player player = players[owner2player[msg.sender]];\n        Monkey monkey = monkeys[owner2monkey[msg.sender]];\n        uint256 random;\n        if (_key > player.level) {\n            player.level = _key;\n        }\n\n        if (monkey.level >= _key) {\n            random = uint(keccak256(now, msg.sender)) % level.addmin;\n            monkey.fight = monkey.fight + random;\n        } else {\n            if (level.special && level.specialcount > level.allcount) {\n                random = uint(keccak256(now, msg.sender)) % (2 * level.addrange) + (2 * level.addmin);\n            } else {\n                random = uint(keccak256(now, msg.sender)) % level.addrange + level.addmin;\n            }\n            monkey.fight = monkey.fight + random;\n            monkey.level = _key;\n            level.allcount ++;\n        }\n        player.power --;\n        monkeys[owner2monkey[msg.sender]] = monkey;\n        players[owner2player[msg.sender]] = player;\n        levels[_key] = level;\n        emit AddLevelResult (random, monkey.fight, monkey.level, player.level, level.allcount, player.power);\n    }\n\n    function ChangeLevelState (uint256 _key, bool _state) private onlyOwner {\n        Level level = levels[_key];\n        level.state = _state;\n        levels[_key] = level;\n    }\n\n    function GetPlayerInfo (uint256 _key) public view returns (uint256, address, uint256, uint256, uint256, bool) {\n        Player player = players[_key];\n        return (player.key, player.owner, player.level, player.power, player.logintime, player.state);\n    }\n\n    function GetLevelInfo (uint256 _key) public view returns (uint256, uint256, bool, uint256, uint256, uint256, uint256, bool) {\n        Level level = levels[_key];\n        return (level.key, level.difficulty, level.special, level.specialcount, level.allcount, level.addrange, level.addmin, level.state);\n    }\n\n    function GetMonkeyInfo (uint256 _key) public view returns (uint256, uint256, bool, uint256, address, uint256) {\n        Monkey monkey = monkeys[_key];\n        return (monkey.key, monkey.fight, monkey.state, monkey.level, monkey2owner[_key], monkey.fight * conversionfight * 6 / 5);\n    }\n\n    function GetOwnerInfo () public view returns (uint256, uint256) {\n        return (owner2player[msg.sender], owner2monkey[msg.sender]);\n    }\n\n    function GetFreeMonkeyCount () public view returns (uint256) {\n        return (allmonkey - freemonkey + 1);\n    }\n\n    function FreePower () public {\n        if (!CheckHavePlayer()) {\n            CreatePlayer();\n        }\n        uint256 _key = owner2player[msg.sender];\n        Player player = players[_key];\n        require(now - player.logintime >= oneday);\n        player.logintime = now;\n        AddPower (5);\n    }\n\n    function AddPower (uint256 _power) private {\n        uint256 _key = owner2player[msg.sender];\n        Player player = players[_key];\n        player.power = player.power + _power;\n        players[_key] = player;\n    }\n\n    function CheckBuypower (uint256 _power) private {\n        uint256 _value = _power * conversionpower;\n        require(msg.value >= _value);\n        owneraddress.transfer(msg.value);\n    }\n\n    function BuyPower (uint256 _power) public payable{\n        if (!CheckHavePlayer()) {\n            CreatePlayer();\n        }\n        require(_power > 0);\n        require(_power <101);\n        CheckBuypower(_power);\n        AddPower (_power);\n    }\n\n    function Training (uint256 _fight) public payable{\n        require (CheckHavePlayer());\n        Player player = players[owner2player[msg.sender]];\n        require (player.state);\n        Monkey monkey = monkeys[owner2monkey[msg.sender]];\n        require (monkey.state);\n        require (msg.value > conversionfight * _fight);\n        owneraddress.transfer(msg.value);\n        monkey.fight = monkey.fight + _fight;\n        monkeys[owner2monkey[msg.sender]] = monkey;\n    }\n\n    function GetTrainingValue (uint256 _fight) public view returns (uint256) {\n        return (conversionfight * _fight);\n    }\n\n\n    function CreateOneLevel () private onlyOwner{\n        uint256 _key = GetLevelLength();\n        uint256 _difficulty = 100 + (_key - 1) * 20;\n        bool _special = (_key % 5 == 1);\n        uint256 _specialcount = 0;\n        if (_special) {\n            _specialcount = 10;\n        }\n        uint256 _allcount = 0;\n        uint256 _addrange = 15; /////////bian\n        uint256 _addmin = 10;    /////////bian\n        bool _state = true;\n        Level memory level = Level({key:_key,difficulty:_difficulty,special:_special,specialcount:_specialcount,allcount:_allcount,addrange:_addrange,addmin:_addmin,state:_state});\n        levels[_key] = level;\n        levelcount ++;\n    }\n\n    function ChangeLevel (uint256 _key, uint256 _difficulty, bool _special, uint256 _specialcount, uint256 _allcount, uint256 _addrange, uint256 _addmin, bool _state) public onlyOwner {\n        Level level = levels[_key];\n        level.difficulty = _difficulty;\n        level.special = _special;\n        level.specialcount = _specialcount;\n        level.addrange = _addrange;\n        level.addmin = _addmin;\n        level.state = _state;\n        levels[_key] = level;\n        emit NewLevel (_key, _difficulty, _special, _specialcount, _allcount, _addrange, _addmin, _state);\n    }\n\n    function CreateLevel (uint256 _count) public onlyOwner{\n        for (uint256 i = 0; i < _count; i++) {\n            CreateOneLevel();\n        }\n        emit NowLevel (GetLevelLength());\n    }\n\n}",
  "sourcePath": "/Users/wkorz/work/eth/TravelMonkey/contracts/Monkey.sol",
  "compiler": {
    "name": "solc",
    "version": "0.4.24+commit.e67f0147.Emscripten.clang"
  },
  "schemaVersion": "2.0.1",
  "updatedAt": "2018-09-14T01:56:50.308Z"
}