{
  "contractName": "MonkeyCore",
  "abi": [
    {
      "constant": true,
      "inputs": [],
      "name": "ceoaddress",
      "outputs": [
        {
          "name": "",
          "type": "address"
        }
      ],
      "payable": false,
      "stateMutability": "view",
      "type": "function"
    },
    {
      "constant": true,
      "inputs": [],
      "name": "owneraddress",
      "outputs": [
        {
          "name": "",
          "type": "address"
        }
      ],
      "payable": false,
      "stateMutability": "view",
      "type": "function"
    },
    {
      "constant": true,
      "inputs": [],
      "name": "ctoaddress",
      "outputs": [
        {
          "name": "",
          "type": "address"
        }
      ],
      "payable": false,
      "stateMutability": "view",
      "type": "function"
    },
    {
      "inputs": [],
      "payable": false,
      "stateMutability": "nonpayable",
      "type": "constructor"
    },
    {
      "anonymous": false,
      "inputs": [
        {
          "indexed": false,
          "name": "",
          "type": "address"
        },
        {
          "indexed": false,
          "name": "",
          "type": "uint256"
        },
        {
          "indexed": false,
          "name": "",
          "type": "bool"
        }
      ],
      "name": "BuyMonkeySuccess",
      "type": "event"
    },
    {
      "anonymous": false,
      "inputs": [
        {
          "indexed": false,
          "name": "",
          "type": "uint256"
        },
        {
          "indexed": false,
          "name": "",
          "type": "uint256"
        }
      ],
      "name": "GetFreeMonkeySuccess",
      "type": "event"
    },
    {
      "anonymous": false,
      "inputs": [
        {
          "indexed": false,
          "name": "",
          "type": "bool"
        },
        {
          "indexed": false,
          "name": "",
          "type": "bool"
        },
        {
          "indexed": false,
          "name": "",
          "type": "uint256"
        },
        {
          "indexed": false,
          "name": "",
          "type": "uint256"
        },
        {
          "indexed": false,
          "name": "",
          "type": "uint256"
        },
        {
          "indexed": false,
          "name": "",
          "type": "uint256"
        }
      ],
      "name": "BuyMonkeyFail",
      "type": "event"
    },
    {
      "anonymous": false,
      "inputs": [
        {
          "indexed": false,
          "name": "",
          "type": "uint256"
        },
        {
          "indexed": false,
          "name": "",
          "type": "uint256"
        },
        {
          "indexed": false,
          "name": "",
          "type": "uint256"
        },
        {
          "indexed": false,
          "name": "",
          "type": "uint256"
        },
        {
          "indexed": false,
          "name": "",
          "type": "uint256"
        },
        {
          "indexed": false,
          "name": "",
          "type": "uint256"
        }
      ],
      "name": "AddLevelResult",
      "type": "event"
    },
    {
      "anonymous": false,
      "inputs": [
        {
          "indexed": false,
          "name": "",
          "type": "uint256"
        },
        {
          "indexed": false,
          "name": "",
          "type": "uint256"
        }
      ],
      "name": "UpgrageFail",
      "type": "event"
    },
    {
      "anonymous": false,
      "inputs": [
        {
          "indexed": false,
          "name": "",
          "type": "uint256"
        },
        {
          "indexed": false,
          "name": "",
          "type": "uint256"
        }
      ],
      "name": "UpgrageSuccess",
      "type": "event"
    },
    {
      "anonymous": false,
      "inputs": [
        {
          "indexed": false,
          "name": "",
          "type": "bool"
        },
        {
          "indexed": false,
          "name": "",
          "type": "bool"
        },
        {
          "indexed": false,
          "name": "",
          "type": "bool"
        },
        {
          "indexed": false,
          "name": "",
          "type": "uint256"
        },
        {
          "indexed": false,
          "name": "",
          "type": "uint256"
        }
      ],
      "name": "CheckUpgradeFail",
      "type": "event"
    },
    {
      "anonymous": false,
      "inputs": [
        {
          "indexed": false,
          "name": "",
          "type": "uint256"
        },
        {
          "indexed": false,
          "name": "",
          "type": "uint256"
        },
        {
          "indexed": false,
          "name": "",
          "type": "bool"
        },
        {
          "indexed": false,
          "name": "",
          "type": "uint256"
        },
        {
          "indexed": false,
          "name": "",
          "type": "uint256"
        },
        {
          "indexed": false,
          "name": "",
          "type": "uint256"
        },
        {
          "indexed": false,
          "name": "",
          "type": "uint256"
        },
        {
          "indexed": false,
          "name": "",
          "type": "bool"
        }
      ],
      "name": "NewLevel",
      "type": "event"
    },
    {
      "anonymous": false,
      "inputs": [
        {
          "indexed": false,
          "name": "",
          "type": "uint256"
        }
      ],
      "name": "NowLevel",
      "type": "event"
    },
    {
      "constant": false,
      "inputs": [
        {
          "name": "_ceoaddress",
          "type": "address"
        }
      ],
      "name": "SetCeoAddress",
      "outputs": [],
      "payable": false,
      "stateMutability": "nonpayable",
      "type": "function"
    },
    {
      "constant": true,
      "inputs": [],
      "name": "GetCeoAddress",
      "outputs": [
        {
          "name": "",
          "type": "address"
        }
      ],
      "payable": false,
      "stateMutability": "view",
      "type": "function"
    },
    {
      "constant": false,
      "inputs": [
        {
          "name": "_ctoaddress",
          "type": "address"
        }
      ],
      "name": "SetCtoAddress",
      "outputs": [],
      "payable": false,
      "stateMutability": "nonpayable",
      "type": "function"
    },
    {
      "constant": true,
      "inputs": [],
      "name": "GetCtoAddress",
      "outputs": [
        {
          "name": "",
          "type": "address"
        }
      ],
      "payable": false,
      "stateMutability": "view",
      "type": "function"
    },
    {
      "constant": false,
      "inputs": [
        {
          "name": "_mulnum",
          "type": "uint256"
        }
      ],
      "name": "SetMulnum",
      "outputs": [],
      "payable": false,
      "stateMutability": "nonpayable",
      "type": "function"
    },
    {
      "constant": true,
      "inputs": [],
      "name": "GetMulnum",
      "outputs": [
        {
          "name": "",
          "type": "uint256"
        }
      ],
      "payable": false,
      "stateMutability": "view",
      "type": "function"
    },
    {
      "constant": false,
      "inputs": [
        {
          "name": "_divnum",
          "type": "uint256"
        }
      ],
      "name": "SetDivnum",
      "outputs": [],
      "payable": false,
      "stateMutability": "nonpayable",
      "type": "function"
    },
    {
      "constant": true,
      "inputs": [],
      "name": "GetDivnum",
      "outputs": [
        {
          "name": "",
          "type": "uint256"
        }
      ],
      "payable": false,
      "stateMutability": "view",
      "type": "function"
    },
    {
      "constant": false,
      "inputs": [
        {
          "name": "_conversionfight",
          "type": "uint256"
        }
      ],
      "name": "SetConversionfight",
      "outputs": [],
      "payable": false,
      "stateMutability": "nonpayable",
      "type": "function"
    },
    {
      "constant": true,
      "inputs": [],
      "name": "GetConversionfight",
      "outputs": [
        {
          "name": "",
          "type": "uint256"
        }
      ],
      "payable": false,
      "stateMutability": "view",
      "type": "function"
    },
    {
      "constant": false,
      "inputs": [
        {
          "name": "_conversionpower",
          "type": "uint256"
        }
      ],
      "name": "SetConversionpower",
      "outputs": [],
      "payable": false,
      "stateMutability": "nonpayable",
      "type": "function"
    },
    {
      "constant": true,
      "inputs": [],
      "name": "GetConversionpower",
      "outputs": [
        {
          "name": "",
          "type": "uint256"
        }
      ],
      "payable": false,
      "stateMutability": "view",
      "type": "function"
    },
    {
      "constant": true,
      "inputs": [],
      "name": "GetTransaction",
      "outputs": [
        {
          "name": "",
          "type": "uint256"
        }
      ],
      "payable": false,
      "stateMutability": "view",
      "type": "function"
    },
    {
      "constant": true,
      "inputs": [],
      "name": "GetProfit",
      "outputs": [
        {
          "name": "",
          "type": "uint256"
        }
      ],
      "payable": false,
      "stateMutability": "view",
      "type": "function"
    },
    {
      "constant": true,
      "inputs": [],
      "name": "GetPowercount",
      "outputs": [
        {
          "name": "",
          "type": "uint256"
        }
      ],
      "payable": false,
      "stateMutability": "view",
      "type": "function"
    },
    {
      "constant": false,
      "inputs": [
        {
          "name": "newOwner",
          "type": "address"
        }
      ],
      "name": "transferOwnership",
      "outputs": [],
      "payable": false,
      "stateMutability": "nonpayable",
      "type": "function"
    },
    {
      "constant": false,
      "inputs": [],
      "name": "test",
      "outputs": [
        {
          "name": "",
          "type": "bool"
        }
      ],
      "payable": false,
      "stateMutability": "nonpayable",
      "type": "function"
    },
    {
      "constant": true,
      "inputs": [],
      "name": "GetPlayerLength",
      "outputs": [
        {
          "name": "",
          "type": "uint256"
        }
      ],
      "payable": false,
      "stateMutability": "view",
      "type": "function"
    },
    {
      "constant": true,
      "inputs": [],
      "name": "GetLevelLength",
      "outputs": [
        {
          "name": "",
          "type": "uint256"
        }
      ],
      "payable": false,
      "stateMutability": "view",
      "type": "function"
    },
    {
      "constant": false,
      "inputs": [],
      "name": "FreeMonkey",
      "outputs": [],
      "payable": false,
      "stateMutability": "nonpayable",
      "type": "function"
    },
    {
      "constant": false,
      "inputs": [
        {
          "name": "_key",
          "type": "uint256"
        }
      ],
      "name": "BuyMonkey",
      "outputs": [],
      "payable": true,
      "stateMutability": "payable",
      "type": "function"
    },
    {
      "constant": true,
      "inputs": [],
      "name": "GetOwnMinValue",
      "outputs": [
        {
          "name": "",
          "type": "uint256"
        }
      ],
      "payable": false,
      "stateMutability": "view",
      "type": "function"
    },
    {
      "constant": true,
      "inputs": [
        {
          "name": "_key",
          "type": "uint256"
        }
      ],
      "name": "GetBuyMinValue",
      "outputs": [
        {
          "name": "",
          "type": "uint256"
        }
      ],
      "payable": false,
      "stateMutability": "view",
      "type": "function"
    },
    {
      "constant": false,
      "inputs": [
        {
          "name": "_key",
          "type": "uint256"
        }
      ],
      "name": "UpgradeLevel",
      "outputs": [],
      "payable": false,
      "stateMutability": "nonpayable",
      "type": "function"
    },
    {
      "constant": true,
      "inputs": [
        {
          "name": "_key",
          "type": "uint256"
        }
      ],
      "name": "GetPlayerInfo",
      "outputs": [
        {
          "name": "",
          "type": "uint256"
        },
        {
          "name": "",
          "type": "address"
        },
        {
          "name": "",
          "type": "uint256"
        },
        {
          "name": "",
          "type": "uint256"
        },
        {
          "name": "",
          "type": "uint256"
        },
        {
          "name": "",
          "type": "bool"
        }
      ],
      "payable": false,
      "stateMutability": "view",
      "type": "function"
    },
    {
      "constant": true,
      "inputs": [
        {
          "name": "_key",
          "type": "uint256"
        }
      ],
      "name": "GetLevelInfo",
      "outputs": [
        {
          "name": "",
          "type": "uint256"
        },
        {
          "name": "",
          "type": "uint256"
        },
        {
          "name": "",
          "type": "bool"
        },
        {
          "name": "",
          "type": "uint256"
        },
        {
          "name": "",
          "type": "uint256"
        },
        {
          "name": "",
          "type": "uint256"
        },
        {
          "name": "",
          "type": "uint256"
        },
        {
          "name": "",
          "type": "bool"
        }
      ],
      "payable": false,
      "stateMutability": "view",
      "type": "function"
    },
    {
      "constant": true,
      "inputs": [
        {
          "name": "_key",
          "type": "uint256"
        }
      ],
      "name": "GetMonkeyInfo",
      "outputs": [
        {
          "name": "",
          "type": "uint256"
        },
        {
          "name": "",
          "type": "uint256"
        },
        {
          "name": "",
          "type": "bool"
        },
        {
          "name": "",
          "type": "uint256"
        },
        {
          "name": "",
          "type": "address"
        },
        {
          "name": "",
          "type": "uint256"
        }
      ],
      "payable": false,
      "stateMutability": "view",
      "type": "function"
    },
    {
      "constant": true,
      "inputs": [],
      "name": "GetOwnerInfo",
      "outputs": [
        {
          "name": "",
          "type": "uint256"
        },
        {
          "name": "",
          "type": "uint256"
        }
      ],
      "payable": false,
      "stateMutability": "view",
      "type": "function"
    },
    {
      "constant": true,
      "inputs": [],
      "name": "GetFreeMonkeyCount",
      "outputs": [
        {
          "name": "",
          "type": "uint256"
        }
      ],
      "payable": false,
      "stateMutability": "view",
      "type": "function"
    },
    {
      "constant": false,
      "inputs": [],
      "name": "FreePower",
      "outputs": [],
      "payable": false,
      "stateMutability": "nonpayable",
      "type": "function"
    },
    {
      "constant": false,
      "inputs": [
        {
          "name": "_power",
          "type": "uint256"
        }
      ],
      "name": "BuyPower",
      "outputs": [],
      "payable": true,
      "stateMutability": "payable",
      "type": "function"
    },
    {
      "constant": false,
      "inputs": [
        {
          "name": "_fight",
          "type": "uint256"
        }
      ],
      "name": "Training",
      "outputs": [],
      "payable": true,
      "stateMutability": "payable",
      "type": "function"
    },
    {
      "constant": true,
      "inputs": [
        {
          "name": "_fight",
          "type": "uint256"
        }
      ],
      "name": "GetTrainingValue",
      "outputs": [
        {
          "name": "",
          "type": "uint256"
        }
      ],
      "payable": false,
      "stateMutability": "view",
      "type": "function"
    },
    {
      "constant": false,
      "inputs": [
        {
          "name": "_key",
          "type": "uint256"
        },
        {
          "name": "_difficulty",
          "type": "uint256"
        },
        {
          "name": "_special",
          "type": "bool"
        },
        {
          "name": "_specialcount",
          "type": "uint256"
        },
        {
          "name": "_allcount",
          "type": "uint256"
        },
        {
          "name": "_addrange",
          "type": "uint256"
        },
        {
          "name": "_addmin",
          "type": "uint256"
        },
        {
          "name": "_state",
          "type": "bool"
        }
      ],
      "name": "ChangeLevel",
      "outputs": [],
      "payable": false,
      "stateMutability": "nonpayable",
      "type": "function"
    },
    {
      "constant": false,
      "inputs": [
        {
          "name": "_count",
          "type": "uint256"
        }
      ],
      "name": "CreateLevel",
      "outputs": [],
      "payable": false,
      "stateMutability": "nonpayable",
      "type": "function"
    }
  ],
  "bytecode": "0x608060405260016009556001600a556002600b556005600c55611388600d55655af3107a4000600e5566038d7ea4c68000600f55670de0b6b3a764000060105562015180601155600f601255600a6013556000601455600060155560006016553480156200006c57600080fd5b50336000806101000a81548173ffffffffffffffffffffffffffffffffffffffff021916908373ffffffffffffffffffffffffffffffffffffffff160217905550620000c6620000cc640100000000026401000000009004565b6200040e565b6080604051908101604052806000815260200160008152602001600115158152602001600081525060036000808152602001908152602001600020600082015181600001556020820151816001015560408201518160020160006101000a81548160ff0219169083151502179055506060820151816003015590505060c060405190810160405280600081526020016000809054906101000a900473ffffffffffffffffffffffffffffffffffffffff1673ffffffffffffffffffffffffffffffffffffffff16815260200160008152602001600081526020016000815260200160001515815250600460008081526020019081526020016000206000820151816000015560208201518160010160006101000a81548173ffffffffffffffffffffffffffffffffffffffff021916908373ffffffffffffffffffffffffffffffffffffffff16021790555060408201518160020155606082015181600301556080820151816004015560a08201518160050160006101000a81548160ff021916908315150217905550905050610100604051908101604052806000815260200160008152602001600015158152602001600081526020016000815260200160008152602001600081526020016000151581525060056000808152602001908152602001600020600082015181600001556020820151816001015560408201518160020160006101000a81548160ff021916908315150217905550606082015181600301556080820151816004015560a0820151816005015560c0820151816006015560e08201518160070160006101000a81548160ff021916908315150217905550905050610100604051908101604052806001815260200160648152602001600115158152602001600a8152602001600081526020016014815260200160148152602001600115158152506005600060018152602001908152602001600020600082015181600001556020820151816001015560408201518160020160006101000a81548160ff021916908315150217905550606082015181600301556080820151816004015560a0820151816005015560c0820151816006015560e08201518160070160006101000a81548160ff021916908315150217905550905050565b614648806200041e6000396000f3006080604052600436106101d8576000357c0100000000000000000000000000000000000000000000000000000000900463ffffffff16806304e8d55e146101dd5780631576c6701461027157806316c8f5701461029c5780631ab801da146102df5780631d13ec601461030c5780632adf1b5d146103375780632cc0c1241461036957806335108ed2146103945780633b7fd516146103eb5780634b0d1cfd1461040b578063565f351e14610436578063576ac46d146104615780635910af59146104a45780635d73c3ac146104cf5780635dd065f9146105265780635eddbe34146105535780636582e5d11461057e5780636644a7bc146105d557806383e31b4514610616578063855e1ef8146106365780638c0498371461066157806397962df31461068e578063a6973956146106bb578063a72eb13114610735578063aaa4842514610776578063ab0b25f1146107cd578063c343fb0a146107fa578063c668a7b014610811578063d4166f5214610828578063d949131f14610848578063dce080de146108bf578063e0b4183614610916578063e93ec0a614610941578063ed6a509b1461096e578063f2fde38b14610999578063f8a8fd6d146109dc578063f8cddcc114610a0b578063fd8219fb14610a36575b600080fd5b3480156101e957600080fd5b5061020860048036038101908080359060200190929190505050610aca565b60405180878152602001868152602001851515151581526020018481526020018373ffffffffffffffffffffffffffffffffffffffff1673ffffffffffffffffffffffffffffffffffffffff168152602001828152602001965050505050505060405180910390f35b34801561027d57600080fd5b50610286610b6d565b6040518082815260200191505060405180910390f35b3480156102a857600080fd5b506102dd600480360381019080803573ffffffffffffffffffffffffffffffffffffffff169060200190929190505050610c82565b005b3480156102eb57600080fd5b5061030a60048036038101908080359060200190929190505050610dd1565b005b34801561031857600080fd5b50610321611064565b6040518082815260200191505060405180910390f35b34801561034357600080fd5b5061034c61106e565b604051808381526020018281526020019250505060405180910390f35b34801561037557600080fd5b5061037e6110f9565b6040518082815260200191505060405180910390f35b3480156103a057600080fd5b506103a961120e565b604051808273ffffffffffffffffffffffffffffffffffffffff1673ffffffffffffffffffffffffffffffffffffffff16815260200191505060405180910390f35b61040960048036038101908080359060200190929190505050611343565b005b34801561041757600080fd5b5061042061146b565b6040518082815260200191505060405180910390f35b34801561044257600080fd5b5061044b611580565b6040518082815260200191505060405180910390f35b34801561046d57600080fd5b506104a2600480360381019080803573ffffffffffffffffffffffffffffffffffffffff169060200190929190505050611695565b005b3480156104b057600080fd5b506104b96117e4565b6040518082815260200191505060405180910390f35b3480156104db57600080fd5b506104e46118f9565b604051808273ffffffffffffffffffffffffffffffffffffffff1673ffffffffffffffffffffffffffffffffffffffff16815260200191505060405180910390f35b34801561053257600080fd5b506105516004803603810190808035906020019092919050505061191f565b005b34801561055f57600080fd5b50610568611a34565b6040518082815260200191505060405180910390f35b34801561058a57600080fd5b50610593611a3e565b604051808273ffffffffffffffffffffffffffffffffffffffff1673ffffffffffffffffffffffffffffffffffffffff16815260200191505060405180910390f35b3480156105e157600080fd5b5061060060048036038101908080359060200190929190505050611b73565b6040518082815260200191505060405180910390f35b61063460048036038101908080359060200190929190505050611b84565b005b34801561064257600080fd5b5061064b611bd9565b6040518082815260200191505060405180910390f35b34801561066d57600080fd5b5061068c60048036038101908080359060200190929190505050611cee565b005b34801561069a57600080fd5b506106b960048036038101908080359060200190929190505050611e03565b005b3480156106c757600080fd5b506106e660048036038101908080359060200190929190505050611f18565b6040518089815260200188815260200187151515158152602001868152602001858152602001848152602001838152602001821515151581526020019850505050505050505060405180910390f35b34801561074157600080fd5b5061076060048036038101908080359060200190929190505050611f99565b6040518082815260200191505060405180910390f35b34801561078257600080fd5b5061078b61207f565b604051808273ffffffffffffffffffffffffffffffffffffffff1673ffffffffffffffffffffffffffffffffffffffff16815260200191505060405180910390f35b3480156107d957600080fd5b506107f8600480360381019080803590602001909291905050506120a4565b005b34801561080657600080fd5b5061080f6121b9565b005b34801561081d57600080fd5b50610826612258565b005b6108466004803603810190808035906020019092919050505061235b565b005b34801561085457600080fd5b506108bd600480360381019080803590602001909291908035906020019092919080351515906020019092919080359060200190929190803590602001909291908035906020019092919080359060200190929190803515159060200190929190505050612402565b005b3480156108cb57600080fd5b506108d46126ae565b604051808273ffffffffffffffffffffffffffffffffffffffff1673ffffffffffffffffffffffffffffffffffffffff16815260200191505060405180910390f35b34801561092257600080fd5b5061092b6126d4565b6040518082815260200191505060405180910390f35b34801561094d57600080fd5b5061096c600480360381019080803590602001909291905050506127e9565b005b34801561097a57600080fd5b5061098361295a565b6040518082815260200191505060405180910390f35b3480156109a557600080fd5b506109da600480360381019080803573ffffffffffffffffffffffffffffffffffffffff16906020019092919050505061296b565b005b3480156109e857600080fd5b506109f1612ab9565b604051808215151515815260200191505060405180910390f35b348015610a1757600080fd5b50610a20612b21565b6040518082815260200191505060405180910390f35b348015610a4257600080fd5b50610a6160048036038101908080359060200190929190505050612ba3565b604051808781526020018673ffffffffffffffffffffffffffffffffffffffff1673ffffffffffffffffffffffffffffffffffffffff16815260200185815260200184815260200183815260200182151515158152602001965050505050505060405180910390f35b6000806000806000806000600360008981526020019081526020016000209050806000015481600101548260020160009054906101000a900460ff168360030154600660008d815260200190815260200160002060009054906101000a900473ffffffffffffffffffffffffffffffffffffffff1660056006600e5488600101540202811515610b5657fe5b049650965096509650965096505091939550919395565b60008060009054906101000a900473ffffffffffffffffffffffffffffffffffffffff1673ffffffffffffffffffffffffffffffffffffffff163373ffffffffffffffffffffffffffffffffffffffff161480610c175750600160009054906101000a900473ffffffffffffffffffffffffffffffffffffffff1673ffffffffffffffffffffffffffffffffffffffff163373ffffffffffffffffffffffffffffffffffffffff16145b80610c6f5750600260009054906101000a900473ffffffffffffffffffffffffffffffffffffffff1673ffffffffffffffffffffffffffffffffffffffff163373ffffffffffffffffffffffffffffffffffffffff16145b1515610c7a57600080fd5b601354905090565b6000809054906101000a900473ffffffffffffffffffffffffffffffffffffffff1673ffffffffffffffffffffffffffffffffffffffff163373ffffffffffffffffffffffffffffffffffffffff161480610d2a5750600160009054906101000a900473ffffffffffffffffffffffffffffffffffffffff1673ffffffffffffffffffffffffffffffffffffffff163373ffffffffffffffffffffffffffffffffffffffff16145b80610d825750600260009054906101000a900473ffffffffffffffffffffffffffffffffffffffff1673ffffffffffffffffffffffffffffffffffffffff163373ffffffffffffffffffffffffffffffffffffffff16145b1515610d8d57600080fd5b80600260006101000a81548173ffffffffffffffffffffffffffffffffffffffff021916908373ffffffffffffffffffffffffffffffffffffffff16021790555050565b6000806000610ddf84612c24565b1515610dea57600080fd5b60056000858152602001908152602001600020925060046000600860003373ffffffffffffffffffffffffffffffffffffffff1673ffffffffffffffffffffffffffffffffffffffff168152602001908152602001600020548152602001908152602001600020915060036000600760003373ffffffffffffffffffffffffffffffffffffffff1673ffffffffffffffffffffffffffffffffffffffff168152602001908152602001600020548152602001908152602001600020905082600101548160010154101515610ec657610ec184612e0c565b61105e565b600684108015610edb5750610eda84613427565b5b15610eee57610ee984612e0c565b61105d565b8160030160008154809291906001900391905055508160046000600860003373ffffffffffffffffffffffffffffffffffffffff1673ffffffffffffffffffffffffffffffffffffffff168152602001908152602001600020548152602001908152602001600020600082015481600001556001820160009054906101000a900473ffffffffffffffffffffffffffffffffffffffff168160010160006101000a81548173ffffffffffffffffffffffffffffffffffffffff021916908373ffffffffffffffffffffffffffffffffffffffff1602179055506002820154816002015560038201548160030155600482015481600401556005820160009054906101000a900460ff168160050160006101000a81548160ff0219169083151502179055509050507f7025c4ba400c41621befebcabaf17642d252a20cdf85a969d0ec163d36361aed81600101548460010154604051808381526020018281526020019250505060405180910390a15b5b50505050565b6000600b54905090565b600080600860003373ffffffffffffffffffffffffffffffffffffffff1673ffffffffffffffffffffffffffffffffffffffff16815260200190815260200160002054600760003373ffffffffffffffffffffffffffffffffffffffff1673ffffffffffffffffffffffffffffffffffffffff16815260200190815260200160002054915091509091565b60008060009054906101000a900473ffffffffffffffffffffffffffffffffffffffff1673ffffffffffffffffffffffffffffffffffffffff163373ffffffffffffffffffffffffffffffffffffffff1614806111a35750600160009054906101000a900473ffffffffffffffffffffffffffffffffffffffff1673ffffffffffffffffffffffffffffffffffffffff163373ffffffffffffffffffffffffffffffffffffffff16145b806111fb5750600260009054906101000a900473ffffffffffffffffffffffffffffffffffffffff1673ffffffffffffffffffffffffffffffffffffffff163373ffffffffffffffffffffffffffffffffffffffff16145b151561120657600080fd5b601554905090565b60008060009054906101000a900473ffffffffffffffffffffffffffffffffffffffff1673ffffffffffffffffffffffffffffffffffffffff163373ffffffffffffffffffffffffffffffffffffffff1614806112b85750600160009054906101000a900473ffffffffffffffffffffffffffffffffffffffff1673ffffffffffffffffffffffffffffffffffffffff163373ffffffffffffffffffffffffffffffffffffffff16145b806113105750600260009054906101000a900473ffffffffffffffffffffffffffffffffffffffff1673ffffffffffffffffffffffffffffffffffffffff163373ffffffffffffffffffffffffffffffffffffffff16145b151561131b57600080fd5b600260009054906101000a900473ffffffffffffffffffffffffffffffffffffffff16905090565b60008061134e613532565b151561135957600080fd5b60046000600860003373ffffffffffffffffffffffffffffffffffffffff1673ffffffffffffffffffffffffffffffffffffffff16815260200190815260200160002054815260200190815260200160002091508160050160009054906101000a900460ff1615156113ca57600080fd5b60036000600760003373ffffffffffffffffffffffffffffffffffffffff1673ffffffffffffffffffffffffffffffffffffffff16815260200190815260200160002054815260200190815260200160002090508060020160009054906101000a900460ff16151561143b57600080fd5b60008311151561144a57600080fd5b64e8d4a510008310151561145d57600080fd5b6114668361358c565b505050565b60008060009054906101000a900473ffffffffffffffffffffffffffffffffffffffff1673ffffffffffffffffffffffffffffffffffffffff163373ffffffffffffffffffffffffffffffffffffffff1614806115155750600160009054906101000a900473ffffffffffffffffffffffffffffffffffffffff1673ffffffffffffffffffffffffffffffffffffffff163373ffffffffffffffffffffffffffffffffffffffff16145b8061156d5750600260009054906101000a900473ffffffffffffffffffffffffffffffffffffffff1673ffffffffffffffffffffffffffffffffffffffff163373ffffffffffffffffffffffffffffffffffffffff16145b151561157857600080fd5b600f54905090565b60008060009054906101000a900473ffffffffffffffffffffffffffffffffffffffff1673ffffffffffffffffffffffffffffffffffffffff163373ffffffffffffffffffffffffffffffffffffffff16148061162a5750600160009054906101000a900473ffffffffffffffffffffffffffffffffffffffff1673ffffffffffffffffffffffffffffffffffffffff163373ffffffffffffffffffffffffffffffffffffffff16145b806116825750600260009054906101000a900473ffffffffffffffffffffffffffffffffffffffff1673ffffffffffffffffffffffffffffffffffffffff163373ffffffffffffffffffffffffffffffffffffffff16145b151561168d57600080fd5b601254905090565b6000809054906101000a900473ffffffffffffffffffffffffffffffffffffffff1673ffffffffffffffffffffffffffffffffffffffff163373ffffffffffffffffffffffffffffffffffffffff16148061173d5750600160009054906101000a900473ffffffffffffffffffffffffffffffffffffffff1673ffffffffffffffffffffffffffffffffffffffff163373ffffffffffffffffffffffffffffffffffffffff16145b806117955750600260009054906101000a900473ffffffffffffffffffffffffffffffffffffffff1673ffffffffffffffffffffffffffffffffffffffff163373ffffffffffffffffffffffffffffffffffffffff16145b15156117a057600080fd5b80600160006101000a81548173ffffffffffffffffffffffffffffffffffffffff021916908373ffffffffffffffffffffffffffffffffffffffff16021790555050565b60008060009054906101000a900473ffffffffffffffffffffffffffffffffffffffff1673ffffffffffffffffffffffffffffffffffffffff163373ffffffffffffffffffffffffffffffffffffffff16148061188e5750600160009054906101000a900473ffffffffffffffffffffffffffffffffffffffff1673ffffffffffffffffffffffffffffffffffffffff163373ffffffffffffffffffffffffffffffffffffffff16145b806118e65750600260009054906101000a900473ffffffffffffffffffffffffffffffffffffffff1673ffffffffffffffffffffffffffffffffffffffff163373ffffffffffffffffffffffffffffffffffffffff16145b15156118f157600080fd5b600e54905090565b600160009054906101000a900473ffffffffffffffffffffffffffffffffffffffff1681565b6000809054906101000a900473ffffffffffffffffffffffffffffffffffffffff1673ffffffffffffffffffffffffffffffffffffffff163373ffffffffffffffffffffffffffffffffffffffff1614806119c75750600160009054906101000a900473ffffffffffffffffffffffffffffffffffffffff1673ffffffffffffffffffffffffffffffffffffffff163373ffffffffffffffffffffffffffffffffffffffff16145b80611a1f5750600260009054906101000a900473ffffffffffffffffffffffffffffffffffffffff1673ffffffffffffffffffffffffffffffffffffffff163373ffffffffffffffffffffffffffffffffffffffff16145b1515611a2a57600080fd5b8060138190555050565b6000600a54905090565b60008060009054906101000a900473ffffffffffffffffffffffffffffffffffffffff1673ffffffffffffffffffffffffffffffffffffffff163373ffffffffffffffffffffffffffffffffffffffff161480611ae85750600160009054906101000a900473ffffffffffffffffffffffffffffffffffffffff1673ffffffffffffffffffffffffffffffffffffffff163373ffffffffffffffffffffffffffffffffffffffff16145b80611b405750600260009054906101000a900473ffffffffffffffffffffffffffffffffffffffff1673ffffffffffffffffffffffffffffffffffffffff163373ffffffffffffffffffffffffffffffffffffffff16145b1515611b4b57600080fd5b600160009054906101000a900473ffffffffffffffffffffffffffffffffffffffff16905090565b6000600282600e5402029050919050565b611b8c613532565b1515611b9b57611b9a613725565b5b600081111515611baa57600080fd5b606581101515611bb957600080fd5b611bc281613885565b611bcb81613914565b806016540160168190555050565b60008060009054906101000a900473ffffffffffffffffffffffffffffffffffffffff1673ffffffffffffffffffffffffffffffffffffffff163373ffffffffffffffffffffffffffffffffffffffff161480611c835750600160009054906101000a900473ffffffffffffffffffffffffffffffffffffffff1673ffffffffffffffffffffffffffffffffffffffff163373ffffffffffffffffffffffffffffffffffffffff16145b80611cdb5750600260009054906101000a900473ffffffffffffffffffffffffffffffffffffffff1673ffffffffffffffffffffffffffffffffffffffff163373ffffffffffffffffffffffffffffffffffffffff16145b1515611ce657600080fd5b601454905090565b6000809054906101000a900473ffffffffffffffffffffffffffffffffffffffff1673ffffffffffffffffffffffffffffffffffffffff163373ffffffffffffffffffffffffffffffffffffffff161480611d965750600160009054906101000a900473ffffffffffffffffffffffffffffffffffffffff1673ffffffffffffffffffffffffffffffffffffffff163373ffffffffffffffffffffffffffffffffffffffff16145b80611dee5750600260009054906101000a900473ffffffffffffffffffffffffffffffffffffffff1673ffffffffffffffffffffffffffffffffffffffff163373ffffffffffffffffffffffffffffffffffffffff16145b1515611df957600080fd5b8060128190555050565b6000809054906101000a900473ffffffffffffffffffffffffffffffffffffffff1673ffffffffffffffffffffffffffffffffffffffff163373ffffffffffffffffffffffffffffffffffffffff161480611eab5750600160009054906101000a900473ffffffffffffffffffffffffffffffffffffffff1673ffffffffffffffffffffffffffffffffffffffff163373ffffffffffffffffffffffffffffffffffffffff16145b80611f035750600260009054906101000a900473ffffffffffffffffffffffffffffffffffffffff1673ffffffffffffffffffffffffffffffffffffffff163373ffffffffffffffffffffffffffffffffffffffff16145b1515611f0e57600080fd5b80600f8190555050565b6000806000806000806000806000600560008b81526020019081526020016000209050806000015481600101548260020160009054906101000a900460ff1683600301548460040154856005015486600601548760070160009054906101000a900460ff169850985098509850985098509850985050919395975091939597565b6000806000806000600360008781526020019081526020016000209350611fbe613532565b1580611fcf5750611fcd613a55565b155b15611ff557601354601254600e5486600101540202811515611fed57fe5b049250612073565b600760003373ffffffffffffffffffffffffffffffffffffffff1673ffffffffffffffffffffffffffffffffffffffff168152602001908152602001600020549150600360008381526020019081526020016000209050600e54816001015402601354601254600e548760010154020281151561206e57fe5b040392505b82945050505050919050565b6000809054906101000a900473ffffffffffffffffffffffffffffffffffffffff1681565b6000809054906101000a900473ffffffffffffffffffffffffffffffffffffffff1673ffffffffffffffffffffffffffffffffffffffff163373ffffffffffffffffffffffffffffffffffffffff16148061214c5750600160009054906101000a900473ffffffffffffffffffffffffffffffffffffffff1673ffffffffffffffffffffffffffffffffffffffff163373ffffffffffffffffffffffffffffffffffffffff16145b806121a45750600260009054906101000a900473ffffffffffffffffffffffffffffffffffffffff1673ffffffffffffffffffffffffffffffffffffffff163373ffffffffffffffffffffffffffffffffffffffff16145b15156121af57600080fd5b80600e8190555050565b6000806121c4613532565b15156121d3576121d2613725565b5b600860003373ffffffffffffffffffffffffffffffffffffffff1673ffffffffffffffffffffffffffffffffffffffff168152602001908152602001600020549150600460008381526020019081526020016000209050601154816004015442031015151561224157600080fd5b4281600401819055506122546005613914565b5050565b612260613a55565b15151561226c57600080fd5b600d546009541115151561227f57600080fd5b612287613725565b612292600954613ac4565b61229c6001613c5f565b7fd3ae608895f053c3ca5d539cb0fc0a01b2ae55cb112d9972434513062c02a8d8600860003373ffffffffffffffffffffffffffffffffffffffff1673ffffffffffffffffffffffffffffffffffffffff16815260200190815260200160002054600760003373ffffffffffffffffffffffffffffffffffffffff1673ffffffffffffffffffffffffffffffffffffffff16815260200190815260200160002054604051808381526020018281526020019250505060405180910390a1565b612363613532565b151561237257612371613725565b5b61237a613a55565b15156123d0576000600760003373ffffffffffffffffffffffffffffffffffffffff1673ffffffffffffffffffffffffffffffffffffffff168152602001908152602001600020819055506123cf6001613c5f565b5b6123d981613dad565b15156123e457600080fd5b6123ed81613f9d565b60146000815480929190600101919050555050565b60008060009054906101000a900473ffffffffffffffffffffffffffffffffffffffff1673ffffffffffffffffffffffffffffffffffffffff163373ffffffffffffffffffffffffffffffffffffffff1614806124ac5750600160009054906101000a900473ffffffffffffffffffffffffffffffffffffffff1673ffffffffffffffffffffffffffffffffffffffff163373ffffffffffffffffffffffffffffffffffffffff16145b806125045750600260009054906101000a900473ffffffffffffffffffffffffffffffffffffffff1673ffffffffffffffffffffffffffffffffffffffff163373ffffffffffffffffffffffffffffffffffffffff16145b151561250f57600080fd5b600560008a81526020019081526020016000209050878160010181905550868160020160006101000a81548160ff021916908315150217905550858160030181905550838160050181905550828160060181905550818160070160006101000a81548160ff02191690831515021790555080600560008b815260200190815260200160002060008201548160000155600182015481600101556002820160009054906101000a900460ff168160020160006101000a81548160ff021916908315150217905550600382015481600301556004820154816004015560058201548160050155600682015481600601556007820160009054906101000a900460ff168160070160006101000a81548160ff0219169083151502179055509050507ed20a50b6f67c67abfc5b53228ff2213171de85853c905fa704af64f700909889898989898989896040518089815260200188815260200187151515158152602001868152602001858152602001848152602001838152602001821515151581526020019850505050505050505060405180910390a1505050505050505050565b600260009054906101000a900473ffffffffffffffffffffffffffffffffffffffff1681565b60008060009054906101000a900473ffffffffffffffffffffffffffffffffffffffff1673ffffffffffffffffffffffffffffffffffffffff163373ffffffffffffffffffffffffffffffffffffffff16148061277e5750600160009054906101000a900473ffffffffffffffffffffffffffffffffffffffff1673ffffffffffffffffffffffffffffffffffffffff163373ffffffffffffffffffffffffffffffffffffffff16145b806127d65750600260009054906101000a900473ffffffffffffffffffffffffffffffffffffffff1673ffffffffffffffffffffffffffffffffffffffff163373ffffffffffffffffffffffffffffffffffffffff16145b15156127e157600080fd5b601654905090565b60008060009054906101000a900473ffffffffffffffffffffffffffffffffffffffff1673ffffffffffffffffffffffffffffffffffffffff163373ffffffffffffffffffffffffffffffffffffffff1614806128935750600160009054906101000a900473ffffffffffffffffffffffffffffffffffffffff1673ffffffffffffffffffffffffffffffffffffffff163373ffffffffffffffffffffffffffffffffffffffff16145b806128eb5750600260009054906101000a900473ffffffffffffffffffffffffffffffffffffffff1673ffffffffffffffffffffffffffffffffffffffff163373ffffffffffffffffffffffffffffffffffffffff16145b15156128f657600080fd5b600090505b818110156129185761290b6142e9565b80806001019150506128fb565b7fd8a7fdd4b68645072bbfef847813bd0c664d9d990cac3a2475098c3a38d3eaa3612941611064565b6040518082815260200191505060405180910390a15050565b60006001600954600d540301905090565b6000809054906101000a900473ffffffffffffffffffffffffffffffffffffffff1673ffffffffffffffffffffffffffffffffffffffff163373ffffffffffffffffffffffffffffffffffffffff161480612a135750600160009054906101000a900473ffffffffffffffffffffffffffffffffffffffff1673ffffffffffffffffffffffffffffffffffffffff163373ffffffffffffffffffffffffffffffffffffffff16145b80612a6b5750600260009054906101000a900473ffffffffffffffffffffffffffffffffffffffff1673ffffffffffffffffffffffffffffffffffffffff163373ffffffffffffffffffffffffffffffffffffffff16145b1515612a7657600080fd5b806000806101000a81548173ffffffffffffffffffffffffffffffffffffffff021916908373ffffffffffffffffffffffffffffffffffffffff16021790555050565b60008060009054906101000a900473ffffffffffffffffffffffffffffffffffffffff1673ffffffffffffffffffffffffffffffffffffffff163373ffffffffffffffffffffffffffffffffffffffff161415612b195760019050612b1e565b600090505b90565b600080600080600760003373ffffffffffffffffffffffffffffffffffffffff1673ffffffffffffffffffffffffffffffffffffffff168152602001908152602001600020549250600360008481526020019081526020016000209150601354601254600e5484600101540202811515612b9757fe5b04905080935050505090565b600080600080600080600060046000898152602001908152602001600020905080600001548160010160009054906101000a900473ffffffffffffffffffffffffffffffffffffffff168260020154836003015484600401548560050160009054906101000a900460ff169650965096509650965096505091939550919395565b60008060008060056000868152602001908152602001600020925060046000600860003373ffffffffffffffffffffffffffffffffffffffff1673ffffffffffffffffffffffffffffffffffffffff168152602001908152602001600020548152602001908152602001600020915060036000600760003373ffffffffffffffffffffffffffffffffffffffff1673ffffffffffffffffffffffffffffffffffffffff16815260200190815260200160002054815260200190815260200160002090508260070160009054906101000a900460ff168015612d1357508160050160009054906101000a900460ff165b8015612d2d57508060020160009054906101000a900460ff165b8015612d3d575060008260030154115b8015612d50575084600182600301540110155b15612d5e5760019350612e04565b7f1a27620b5e42152c3c841f609e7fe9edea353a8d724226e4d72987fda47034978360070160009054906101000a900460ff168360050160009054906101000a900460ff168360020160009054906101000a900460ff1685600301546001866003015401604051808615151515815260200185151515158152602001841515151581526020018381526020018281526020019550505050505060405180910390a1600093505b505050919050565b60008060008060056000868152602001908152602001600020935060046000600860003373ffffffffffffffffffffffffffffffffffffffff1673ffffffffffffffffffffffffffffffffffffffff168152602001908152602001600020548152602001908152602001600020925060036000600760003373ffffffffffffffffffffffffffffffffffffffff1673ffffffffffffffffffffffffffffffffffffffff16815260200190815260200160002054815260200190815260200160002091508260020154851115612ee5578483600201819055505b84826003015410158015612efd575084836002015410155b15612f16578482600101540182600101819055506130f1565b848260030154101515612fa55783600601544233604051808381526020018273ffffffffffffffffffffffffffffffffffffffff1673ffffffffffffffffffffffffffffffffffffffff166c0100000000000000000000000002815260140192505050604051809103902060019004811515612f8e57fe5b0690508082600101540182600101819055506130f0565b8360020160009054906101000a900460ff168015612fca575083600401548460030154115b1561304e57836006015460020284600501546002024233604051808381526020018273ffffffffffffffffffffffffffffffffffffffff1673ffffffffffffffffffffffffffffffffffffffff166c010000000000000000000000000281526014019250505060405180910390206001900481151561304557fe5b060190506130c3565b836006015484600501544233604051808381526020018273ffffffffffffffffffffffffffffffffffffffff1673ffffffffffffffffffffffffffffffffffffffff166c01000000000000000000000000028152601401925050506040518091039020600190048115156130be57fe5b060190505b80826001015401826001018190555084826003018190555083600401600081548092919060010191905055505b5b8260030160008154809291906001900391905055508160036000600760003373ffffffffffffffffffffffffffffffffffffffff1673ffffffffffffffffffffffffffffffffffffffff16815260200190815260200160002054815260200190815260200160002060008201548160000155600182015481600101556002820160009054906101000a900460ff168160020160006101000a81548160ff021916908315150217905550600382015481600301559050508260046000600860003373ffffffffffffffffffffffffffffffffffffffff1673ffffffffffffffffffffffffffffffffffffffff168152602001908152602001600020548152602001908152602001600020600082015481600001556001820160009054906101000a900473ffffffffffffffffffffffffffffffffffffffff168160010160006101000a81548173ffffffffffffffffffffffffffffffffffffffff021916908373ffffffffffffffffffffffffffffffffffffffff1602179055506002820154816002015560038201548160030155600482015481600401556005820160009054906101000a900460ff168160050160006101000a81548160ff021916908315150217905550905050836005600087815260200190815260200160002060008201548160000155600182015481600101556002820160009054906101000a900460ff168160020160006101000a81548160ff021916908315150217905550600382015481600301556004820154816004015560058201548160050155600682015481600601556007820160009054906101000a900460ff168160070160006101000a81548160ff0219169083151502179055509050507f5175e4026e9ab4668474ea7640bc6dda77f40c7ae8a0292107ffc543b432937782600101548560010154604051808381526020018281526020019250505060405180910390a17fa3aaa3db72d4eae5df657e7e10c5fbae0c207566c15d85d4e4d80c8304a0813c818360010154846003015486600201548860040154886003015460405180878152602001868152602001858152602001848152602001838152602001828152602001965050505050505060405180910390a15050505050565b600080600080600060056000878152602001908152602001600020935060036000600760003373ffffffffffffffffffffffffffffffffffffffff1673ffffffffffffffffffffffffffffffffffffffff1681526020019081526020016000205481526020019081526020016000209250600183600101548560010154030191504233604051808381526020018273ffffffffffffffffffffffffffffffffffffffff1673ffffffffffffffffffffffffffffffffffffffff166c010000000000000000000000000281526014019250505060405180910390206001900490506000828281151561351457fe5b0614156135245760019450613529565b600094505b50505050919050565b600080600860003373ffffffffffffffffffffffffffffffffffffffff1673ffffffffffffffffffffffffffffffffffffffff1681526020019081526020016000205414156135845760009050613589565b600190505b90565b60008060036000600760003373ffffffffffffffffffffffffffffffffffffffff1673ffffffffffffffffffffffffffffffffffffffff16815260200190815260200160002054815260200190815260200160002091506135ec83611b73565b90508034101515156135fd57600080fd5b6000809054906101000a900473ffffffffffffffffffffffffffffffffffffffff1673ffffffffffffffffffffffffffffffffffffffff166108fc349081150290604051600060405180830381858888f19350505050158015613664573d6000803e3d6000fd5b5034601554016015819055508282600101540182600101819055508160036000600760003373ffffffffffffffffffffffffffffffffffffffff1673ffffffffffffffffffffffffffffffffffffffff16815260200190815260200160002054815260200190815260200160002060008201548160000155600182015481600101556002820160009054906101000a900460ff168160020160006101000a81548160ff02191690831515021790555060038201548160030155905050505050565b600061372f614583565b613737611a34565b915060c0604051908101604052808381526020013373ffffffffffffffffffffffffffffffffffffffff16815260200160008152602001600c54815260200142815260200160001515815250905080600460008481526020019081526020016000206000820151816000015560208201518160010160006101000a81548173ffffffffffffffffffffffffffffffffffffffff021916908373ffffffffffffffffffffffffffffffffffffffff16021790555060408201518160020155606082015181600301556080820151816004015560a08201518160050160006101000a81548160ff02191690831515021790555090505081600860003373ffffffffffffffffffffffffffffffffffffffff1673ffffffffffffffffffffffffffffffffffffffff16815260200190815260200160002081905550600a600081548092919060010191905055505050565b6000600f548202905080341015151561389d57600080fd5b6000809054906101000a900473ffffffffffffffffffffffffffffffffffffffff1673ffffffffffffffffffffffffffffffffffffffff166108fc349081150290604051600060405180830381858888f19350505050158015613904573d6000803e3d6000fd5b5034601554016015819055505050565b600080600860003373ffffffffffffffffffffffffffffffffffffffff1673ffffffffffffffffffffffffffffffffffffffff1681526020019081526020016000205491506004600083815260200190815260200160002090508281600301540181600301819055508060046000848152602001908152602001600020600082015481600001556001820160009054906101000a900473ffffffffffffffffffffffffffffffffffffffff168160010160006101000a81548173ffffffffffffffffffffffffffffffffffffffff021916908373ffffffffffffffffffffffffffffffffffffffff1602179055506002820154816002015560038201548160030155600482015481600401556005820160009054906101000a900460ff168160050160006101000a81548160ff021916908315150217905550905050505050565b60008060046000600860003373ffffffffffffffffffffffffffffffffffffffff1673ffffffffffffffffffffffffffffffffffffffff16815260200190815260200160002054815260200190815260200160002090508060050160009054906101000a900460ff1691505090565b600080601e4233604051808381526020018273ffffffffffffffffffffffffffffffffffffffff1673ffffffffffffffffffffffffffffffffffffffff166c0100000000000000000000000002815260140192505050604051809103902060019004811515613b2f57fe5b069150816064019050608060405190810160405280848152602001828152602001600115158152602001600081525060036000858152602001908152602001600020600082015181600001556020820151816001015560408201518160020160006101000a81548160ff02191690831515021790555060608201518160030155905050336006600085815260200190815260200160002060006101000a81548173ffffffffffffffffffffffffffffffffffffffff021916908373ffffffffffffffffffffffffffffffffffffffff16021790555082600760003373ffffffffffffffffffffffffffffffffffffffff1673ffffffffffffffffffffffffffffffffffffffff16815260200190815260200160002081905550600960008154809291906001019190505550505050565b600080600860003373ffffffffffffffffffffffffffffffffffffffff1673ffffffffffffffffffffffffffffffffffffffff168152602001908152602001600020549150600460008381526020019081526020016000209050828160050160006101000a81548160ff0219169083151502179055508060046000848152602001908152602001600020600082015481600001556001820160009054906101000a900473ffffffffffffffffffffffffffffffffffffffff168160010160006101000a81548173ffffffffffffffffffffffffffffffffffffffff021916908373ffffffffffffffffffffffffffffffffffffffff1602179055506002820154816002015560038201548160030155600482015481600401556005820160009054906101000a900460ff168160050160006101000a81548160ff021916908315150217905550905050505050565b6000806000806000806000600360008981526020019081526020016000209550600760003373ffffffffffffffffffffffffffffffffffffffff1673ffffffffffffffffffffffffffffffffffffffff1681526020019081526020016000205494506003600086815260200190815260200160002093506006600089815260200190815260200160002060009054906101000a900473ffffffffffffffffffffffffffffffffffffffff169250613e6388611f99565b9150600a34811515613e7157fe5b0490508560020160009054906101000a900460ff168015613ea057508360020160009054906101000a900460ff165b8015613eb457508360010154866001015410155b15613f8d57813410151515613ec857600080fd5b8273ffffffffffffffffffffffffffffffffffffffff166108fc8234039081150290604051600060405180830381858888f19350505050158015613f10573d6000803e3d6000fd5b506000809054906101000a900473ffffffffffffffffffffffffffffffffffffffff1673ffffffffffffffffffffffffffffffffffffffff166108fc829081150290604051600060405180830381858888f19350505050158015613f78573d6000803e3d6000fd5b50806015540160158190555060019650613f92565b600096505b505050505050919050565b6000806000806003600086815260200190815260200160002093506006600086815260200190815260200160002060009054906101000a900473ffffffffffffffffffffffffffffffffffffffff169250600760003373ffffffffffffffffffffffffffffffffffffffff1673ffffffffffffffffffffffffffffffffffffffff1681526020019081526020016000205491506003600083815260200190815260200160002090503373ffffffffffffffffffffffffffffffffffffffff168373ffffffffffffffffffffffffffffffffffffffff161415151561408057600080fd5b600e543481151561408d57fe5b048160010154018460010181905550836003600087815260200190815260200160002060008201548160000155600182015481600101556002820160009054906101000a900460ff168160020160006101000a81548160ff0219169083151502179055506003820154816003015590505084600760003373ffffffffffffffffffffffffffffffffffffffff1673ffffffffffffffffffffffffffffffffffffffff16815260200190815260200160002081905550336006600087815260200190815260200160002060006101000a81548173ffffffffffffffffffffffffffffffffffffffff021916908373ffffffffffffffffffffffffffffffffffffffff16021790555081600760008573ffffffffffffffffffffffffffffffffffffffff1673ffffffffffffffffffffffffffffffffffffffff16815260200190815260200160002081905550826006600084815260200190815260200160002060006101000a81548173ffffffffffffffffffffffffffffffffffffffff021916908373ffffffffffffffffffffffffffffffffffffffff1602179055507f02f0731219d19ac933e01266ca1b75d6b136b1a499775397be2f449b8d2015683386600760003373ffffffffffffffffffffffffffffffffffffffff1673ffffffffffffffffffffffffffffffffffffffff168152602001908152602001600020548814604051808473ffffffffffffffffffffffffffffffffffffffff1673ffffffffffffffffffffffffffffffffffffffff16815260200183815260200182151515158152602001935050505060405180910390a15050505050565b60008060008060008060008060006142ff6145d2565b6000809054906101000a900473ffffffffffffffffffffffffffffffffffffffff1673ffffffffffffffffffffffffffffffffffffffff163373ffffffffffffffffffffffffffffffffffffffff1614806143a75750600160009054906101000a900473ffffffffffffffffffffffffffffffffffffffff1673ffffffffffffffffffffffffffffffffffffffff163373ffffffffffffffffffffffffffffffffffffffff16145b806143ff5750600260009054906101000a900473ffffffffffffffffffffffffffffffffffffffff1673ffffffffffffffffffffffffffffffffffffffff163373ffffffffffffffffffffffffffffffffffffffff16145b151561440a57600080fd5b614412611064565b99506005600060018c03815260200190815260200160002098506013546012548a600101540281151561444157fe5b049750600160058b81151561445257fe5b0614965060009550861561446557600a95505b60009450600a6002890281151561447857fe5b049350600a6002890281151561448a57fe5b04925060019150610100604051908101604052808b81526020018981526020018815158152602001878152602001868152602001858152602001848152602001831515815250905080600560008c8152602001908152602001600020600082015181600001556020820151816001015560408201518160020160006101000a81548160ff021916908315150217905550606082015181600301556080820151816004015560a0820151816005015560c0820151816006015560e08201518160070160006101000a81548160ff021916908315150217905550905050600b6000815480929190600101919050555050505050505050505050565b60c06040519081016040528060008152602001600073ffffffffffffffffffffffffffffffffffffffff1681526020016000815260200160008152602001600081526020016000151581525090565b6101006040519081016040528060008152602001600081526020016000151581526020016000815260200160008152602001600081526020016000815260200160001515815250905600a165627a7a72305820876fafd293b5779595c656ce437971f94a4edff43271ca92e1ac346e3261de7b0029",
  "source": "pragma solidity ^0.4.11;\n\ncontract MonkeyCore {\n    address public owneraddress;\n    address public ceoaddress;\n//    address public cfoaddress;\n//    address public cooaddress;\n    address public ctoaddress;\n    \n    struct Monkey {\n        uint256 key;\n        uint256 fight;\n        bool state;\n        uint256 level;\n    }\n\n    struct Player {\n        uint256 key;\n        address owner;\n        uint256 level;\n        uint256 power;\n        uint256 logintime;\n        bool state;  /////////\n    }\n\n    struct Level {\n        uint256 key;\n        uint256 difficulty;\n        bool special;\n        uint256 specialcount;\n        uint256 allcount;\n        uint256 addrange;\n        uint256 addmin;\n        bool state;\n    }\n\n    mapping (uint256 => Monkey) monkeys;\n    mapping (uint256 => Player) players;\n    mapping (uint256 => Level) levels;\n    mapping (uint256 => address) monkey2owner;\n    mapping (address => uint256) owner2monkey;\n    mapping (address => uint256) owner2player;\n\n    uint256 freemonkey = 1;\n    uint256 playercount = 1;\n    uint256 levelcount = 2;\n    uint256 initpower = 5;\n    uint256 allmonkey = 5000;\n    uint256 conversionfight = 100000000000000;   ////0.0001eth\n    uint256 conversionpower = 1000000000000000;  ////0.001eth\n    uint256 wei2eth = 1000000000000000000;\n    uint256 oneday = 24 * 60 * 60;\n    uint256 mulnum = 15;\n    uint256 divnum = 10;\n    uint256 transaction = 0;\n    uint256 profit = 0;\n    uint256 powercount = 0;\n\n    event BuyMonkeySuccess (address, uint256, bool);\n    event GetFreeMonkeySuccess (uint256, uint256);\n    event BuyMonkeyFail (bool, bool, uint256, uint256, uint256, uint256);\n    event AddLevelResult (uint256, uint256, uint256, uint256, uint256, uint256);\n    event UpgrageFail (uint256, uint256);\n    event UpgrageSuccess (uint256, uint256);\n    event CheckUpgradeFail (bool, bool, bool, uint256, uint256);\n    event NewLevel (uint256, uint256, bool, uint256, uint256, uint256, uint256, bool);\n    event NowLevel (uint256);\n\n    function MonkeyCore() public{\n        owneraddress = msg.sender;\n        Init();\n    }\n\n    modifier onlyOwner() {\n        require(msg.sender == owneraddress || msg.sender == ceoaddress || msg.sender == ctoaddress);\n        _;\n    }\n\n    function SetCeoAddress (address _ceoaddress) public onlyOwner {\n        ceoaddress = _ceoaddress;\n    }\n\n    function GetCeoAddress () public view onlyOwner returns(address){\n        return ceoaddress;\n    }\n\n    function SetCtoAddress (address _ctoaddress) public onlyOwner {\n        ctoaddress = _ctoaddress;\n    }\n\n    function GetCtoAddress () public view onlyOwner returns(address){\n        return ctoaddress;\n    }\n/*\n    function SetCfoAddress (address _cfoaddress) public onlyOwner {\n        cfoaddress = _cfoaddress;\n    }\n\n    function GetCfoAddress () public view onlyOwner returns(address){\n        return cfoaddress;\n    }\n\n    function SetCooAddress (address _cooaddress) public onlyOwner {\n        cooaddress = _cooaddress;\n    }\n\n    function GetCooAddress () public view onlyOwner returns(address){\n        return cooaddress;\n    }\n    */\n\n    function SetMulnum (uint256 _mulnum) public onlyOwner {\n        mulnum = _mulnum;\n    }\n\n    function GetMulnum () public view onlyOwner returns (uint256){\n        return mulnum;\n    }\n\n    function SetDivnum (uint256 _divnum) public onlyOwner {\n        divnum = _divnum;\n    }\n\n    function GetDivnum () public view onlyOwner returns (uint256){\n        return divnum;\n    }\n\n    function SetConversionfight (uint256 _conversionfight) public onlyOwner {\n        conversionfight = _conversionfight;\n    }\n\n    function GetConversionfight () public view onlyOwner returns (uint256){\n        return conversionfight;\n    }\n\n    function SetConversionpower (uint256 _conversionpower) public onlyOwner {\n        conversionpower = _conversionpower;\n    }\n\n    function GetConversionpower () public view onlyOwner returns (uint256){\n        return conversionpower;\n    }\n\n    function GetTransaction () public view onlyOwner returns (uint256){\n        return transaction;\n    }\n\n    function GetProfit () public view onlyOwner returns (uint256){\n        return profit;\n    }\n\n    function GetPowercount () public view onlyOwner returns (uint256){\n        return powercount;\n    }\n\n    function transferOwnership(address newOwner) onlyOwner public {\n        owneraddress = newOwner;\n    }\n\n    function test () public returns(bool) {\n        if (msg.sender == owneraddress){\n            return true;\n        }\n        return false;\n    }\n\n    function Init () private {\n        monkeys[0] = Monkey({key:0,fight:0,state:true,level:0});\n        players[0] = Player({key:0,owner:owneraddress,level:0,power:0,logintime:0,state:false});\n        levels[0] = Level({key:0, difficulty:0, special:false, specialcount:0, allcount:0, addrange:0, addmin:0, state:false});\n        levels[1] = Level({key:1, difficulty:100, special:true, specialcount:10, allcount:0, addrange:20, addmin:20, state:true});\n    }\n\n    function CheckHaveMonkey () private view returns (bool) {\n        Player player = players[owner2player[msg.sender]];\n        return player.state;\n    }\n\n    function CheckHavePlayer () private view returns (bool) {\n        if (owner2player[msg.sender] == 0){\n            return false;\n        } else {\n            return true;\n        }\n    }\n\n    function GetPlayerLength () public view returns (uint256) {\n        return playercount;\n    }\n\n    function GetLevelLength () public view returns (uint256) {\n        return levelcount;\n    }\n\n    function CreatePlayer () private {\n        uint256 _key = GetPlayerLength();\n        Player memory player = Player({key:_key, owner:msg.sender, level:0, power:initpower, logintime:now, state:false});\n        players[_key] = player;\n        owner2player[msg.sender] = _key;\n        playercount ++;\n    }\n\n    function CreateMonkey (uint256 _key) private {\n        uint256 random = uint(keccak256(now, msg.sender)) % 30;\n        uint256 _fight = 100 + random;\n        monkeys[_key] = Monkey({key:_key,fight:_fight,state:true,level:0});\n        monkey2owner[_key] = msg.sender;\n        owner2monkey[msg.sender] = _key;\n        freemonkey ++;\n    }\n\n    function ChangePlayerState (bool _state) private {\n        uint256 _key = owner2player[msg.sender];\n        Player player = players[_key];\n        player.state = _state;\n        players[_key] = player;\n    }\n\n    function ChangeMonkeyState (bool _state) private {\n        uint256 _key = owner2monkey[msg.sender];\n        Monkey monkey = monkeys[_key];\n        monkey.state = _state;\n        monkeys[_key] = monkey;\n    }\n\n    function FreeMonkey () public {\n        require(!CheckHaveMonkey());\n        require(freemonkey <= allmonkey);\n        CreatePlayer();\n        CreateMonkey(freemonkey);\n        ChangePlayerState(true);\n        emit GetFreeMonkeySuccess (owner2player[msg.sender], owner2monkey[msg.sender]);\n    }\n\n    function BuyMonkey (uint256 _key) public payable{\n        ///////////////monkey has owner\n        if (!CheckHavePlayer()) {\n            CreatePlayer();\n        }\n        if (!CheckHaveMonkey()) { \n            owner2monkey[msg.sender] = 0;\n            ChangePlayerState(true);\n        }\n        require (CheckBuyMonkey(_key));\n        ChangeBuyMonkeyState(_key);\n        transaction ++;\n    }\n\n    function GetOwnMinValue () public view returns (uint256) {\n        uint256 _key = owner2monkey[msg.sender];\n        Monkey _monkey = monkeys[_key];\n        uint256 minvalue = _monkey.fight * conversionfight *  mulnum / divnum;\n        return minvalue;\n    }\n\n    function GetBuyMinValue (uint256 _key) public view returns (uint256) {\n        Monkey _monkey = monkeys[_key];\n        uint256 minvalue;\n        if (!CheckHavePlayer() || !CheckHaveMonkey()) {\n            minvalue = _monkey.fight * conversionfight * mulnum / divnum;\n        } else {\n            uint256 _changekey = owner2monkey[msg.sender];\n            Monkey _changemonkey = monkeys[_changekey];\n            minvalue = _monkey.fight * conversionfight * mulnum / divnum - _changemonkey.fight * conversionfight;\n        }\n        return minvalue;\n    }\n\n    function ChangeBuyMonkeyState (uint256 _key) private {\n        Monkey _monkey = monkeys[_key];\n        address _owner = monkey2owner[_key];\n        uint256 _changekey = owner2monkey[msg.sender];\n        Monkey _changemonkey = monkeys[_changekey];\n\n        require (_owner != msg.sender);\n\n        _monkey.fight = (_changemonkey.fight + msg.value / conversionfight);\n        monkeys[_key] = _monkey;\n        owner2monkey[msg.sender] = _key;\n        monkey2owner[_key] = msg.sender;\n        owner2monkey[_owner] = _changekey;\n        monkey2owner[_changekey] = _owner;\n\n        emit BuyMonkeySuccess(msg.sender , _key, _key == owner2monkey[msg.sender]);\n    }\n\n    function CheckBuyMonkey (uint _key) private view returns(bool) {\n        Monkey _monkey = monkeys[_key];\n        uint256 _changekey = owner2monkey[msg.sender];\n        Monkey _changemonkey = monkeys[_changekey];\n        address _owner = monkey2owner[_key];\n        \n        uint256 minvalue = GetBuyMinValue (_key);\n        uint256 fee = msg.value / 10 ;\n        if (_monkey.state && _changemonkey.state && _monkey.fight >= _changemonkey.fight) {\n            require (msg.value >= minvalue);\n            _owner.transfer(msg.value - fee);\n            owneraddress.transfer(fee);\n            profit = profit + fee;\n            return true;\n        } else {\n            return false;\n            emit BuyMonkeyFail(_monkey.state , _changemonkey.state, _monkey.fight, _changemonkey.fight, msg.value, minvalue);\n        }\n    }\n\n    function UpgradeProbability (uint256 _key) private view returns (bool){\n        Level level = levels[_key];\n        Monkey monkey = monkeys[owner2monkey[msg.sender]];\n        uint256 num = level.difficulty - monkey.fight + 1;\n        uint256 random = uint256(keccak256(now, msg.sender));\n        if (random % num == 0){\n            return true;\n        } else {\n            return false;\n        }\n    }\n\n    function UpgradeLevel (uint256 _key) public {\n        require (CheckUpgrade(_key));\n        Level level = levels[_key];\n        Player player = players[owner2player[msg.sender]];\n        Monkey monkey = monkeys[owner2monkey[msg.sender]];\n        if (monkey.fight >= level.difficulty) {\n            AddLevel(_key);\n        } else if (_key < 6 && UpgradeProbability(_key)){\n            AddLevel(_key);\n        }else{\n            player.power --;\n            players[owner2player[msg.sender]] = player;\n            emit UpgrageFail (monkey.fight, level.difficulty);\n        }\n    }\n\n    function CheckUpgrade (uint256 _key) private view returns (bool) {\n        Level level = levels[_key];\n        Player player = players[owner2player[msg.sender]];\n        Monkey monkey = monkeys[owner2monkey[msg.sender]];\n        if(level.state && player.state && monkey.state && player.power > 0 && monkey.level + 1 >= _key){\n            return true;\n        } else {\n            emit CheckUpgradeFail (level.state, player.state, monkey.state, player.power, monkey.level + 1);\n            return false;\n        }\n    }\n\n    function AddLevel (uint _key) private {\n        Level level = levels[_key];\n        Player player = players[owner2player[msg.sender]];\n        Monkey monkey = monkeys[owner2monkey[msg.sender]];\n        uint256 random;\n        if (_key > player.level) {\n            player.level = _key;\n        }\n\n        if (monkey.level >= _key && player.level >= _key) {\n            monkey.fight = monkey.fight + _key;\n        } else if (monkey.level >= _key) {\n            random = uint(keccak256(now, msg.sender)) % level.addmin;\n            monkey.fight = monkey.fight + random;\n        }else {\n            if (level.special && level.specialcount > level.allcount) {\n                random = uint(keccak256(now, msg.sender)) % (2 * level.addrange) + (2 * level.addmin);\n            } else {\n                random = uint(keccak256(now, msg.sender)) % level.addrange + level.addmin;\n            }\n            monkey.fight = monkey.fight + random;\n            monkey.level = _key;\n            level.allcount ++;\n        }\n        player.power --;\n        monkeys[owner2monkey[msg.sender]] = monkey;\n        players[owner2player[msg.sender]] = player;\n        levels[_key] = level;\n        emit UpgrageSuccess(monkey.fight, level.difficulty);\n        emit AddLevelResult (random, monkey.fight, monkey.level, player.level, level.allcount, player.power);\n    }\n\n    function ChangeLevelState (uint256 _key, bool _state) private onlyOwner {\n        Level level = levels[_key];\n        level.state = _state;\n        levels[_key] = level;\n    }\n\n    function GetPlayerInfo (uint256 _key) public view returns (uint256, address, uint256, uint256, uint256, bool) {\n        Player player = players[_key];\n        return (player.key, player.owner, player.level, player.power, player.logintime, player.state);\n    }\n\n    function GetLevelInfo (uint256 _key) public view returns (uint256, uint256, bool, uint256, uint256, uint256, uint256, bool) {\n        Level level = levels[_key];\n        return (level.key, level.difficulty, level.special, level.specialcount, level.allcount, level.addrange, level.addmin, level.state);\n    }\n\n    function GetMonkeyInfo (uint256 _key) public view returns (uint256, uint256, bool, uint256, address, uint256) {\n        Monkey monkey = monkeys[_key];\n        return (monkey.key, monkey.fight, monkey.state, monkey.level, monkey2owner[_key], monkey.fight * conversionfight * 6 / 5);\n    }\n\n    function GetOwnerInfo () public view returns (uint256, uint256) {\n        return (owner2player[msg.sender], owner2monkey[msg.sender]);\n    }\n\n    function GetFreeMonkeyCount () public view returns (uint256) {\n        return (allmonkey - freemonkey + 1);\n    }\n\n    function FreePower () public {\n        if (!CheckHavePlayer()) {\n            CreatePlayer();\n        }\n        uint256 _key = owner2player[msg.sender];\n        Player player = players[_key];\n        require(now - player.logintime >= oneday);\n        player.logintime = now;\n        AddPower (5);\n    }\n\n    function AddPower (uint256 _power) private {\n        uint256 _key = owner2player[msg.sender];\n        Player player = players[_key];\n        player.power = player.power + _power;\n        players[_key] = player;\n    }\n\n    function CheckBuypower (uint256 _power) private {\n        uint256 _value = _power * conversionpower;\n        require(msg.value >= _value);\n        owneraddress.transfer(msg.value);\n        profit = profit + msg.value;\n    }\n\n    function BuyPower (uint256 _power) public payable{\n        if (!CheckHavePlayer()) {\n            CreatePlayer();\n        }\n        require(_power > 0);\n        require(_power <101);\n        CheckBuypower(_power);\n        AddPower (_power);\n        powercount = powercount + _power;\n    }\n\n    function CheckTraining (uint256 _fight) private {\n        Monkey monkey = monkeys[owner2monkey[msg.sender]];\n        uint256 minvalue = GetTrainingValue(_fight);\n        require (msg.value >= minvalue);\n        owneraddress.transfer(msg.value);\n        profit = profit + msg.value;\n        monkey.fight = monkey.fight + _fight;\n        monkeys[owner2monkey[msg.sender]] = monkey;\n    }\n\n    function Training (uint256 _fight) public payable{\n        require (CheckHavePlayer());\n        Player player = players[owner2player[msg.sender]];\n        require (player.state);\n        Monkey monkey = monkeys[owner2monkey[msg.sender]];\n        require (monkey.state);\n        require (_fight > 0);\n        require (_fight < 1000000000000);\n        CheckTraining(_fight);\n    }\n\n    function GetTrainingValue (uint256 _fight) public view returns (uint256) {\n        return (conversionfight * _fight * 2);\n    }\n\n    function CreateOneLevel () private onlyOwner{\n        uint256 _key = GetLevelLength();\n        Level levelpre = levels[_key - 1];\n        uint256 _difficulty = levelpre.difficulty * mulnum / divnum;\n        bool _special = (_key % 5 == 1);\n        uint256 _specialcount = 0;\n        if (_special) {\n            _specialcount = 10;\n        }\n        uint256 _allcount = 0;\n        uint256 _addrange = _difficulty * 2 / 10; /////////bian\n        uint256 _addmin = _difficulty * 2 / 10;     /////////bian\n        bool _state = true;\n        Level memory level = Level({key:_key,difficulty:_difficulty,special:_special,specialcount:_specialcount,allcount:_allcount,addrange:_addrange,addmin:_addmin,state:_state});\n        levels[_key] = level;\n        levelcount ++;\n    }\n\n    function ChangeLevel (uint256 _key, uint256 _difficulty, bool _special, uint256 _specialcount, uint256 _allcount, uint256 _addrange, uint256 _addmin, bool _state) public onlyOwner {\n        Level level = levels[_key];\n        level.difficulty = _difficulty;\n        level.special = _special;\n        level.specialcount = _specialcount;\n        level.addrange = _addrange;\n        level.addmin = _addmin;\n        level.state = _state;\n        levels[_key] = level;\n        emit NewLevel (_key, _difficulty, _special, _specialcount, _allcount, _addrange, _addmin, _state);\n    }\n\n    function CreateLevel (uint256 _count) public onlyOwner{\n        for (uint256 i = 0; i < _count; i++) {\n            CreateOneLevel();\n        }\n        emit NowLevel (GetLevelLength());\n    }\n\n}",
  "sourcePath": "/Users/wkorz/work/eth/TravelMonkey/contracts/Monkey.sol",
  "compiler": {
    "name": "solc",
    "version": "0.4.24+commit.e67f0147.Emscripten.clang"
  },
  "schemaVersion": "2.0.1",
  "updatedAt": "2018-09-18T10:13:23.676Z"
}